{
  "_format": "hh-sol-artifact-1",
  "contractName": "QUIDDVouchersRedeemer",
  "sourceName": "contracts/token/ERC1155/QUIDDVouchersRedeemer.sol",
  "abi": [
    {
      "inputs": [
        {
          "internalType": "contract IERC1155InventoryBurnable",
          "name": "vouchersContract",
          "type": "address"
        },
        {
          "internalType": "contract IWrappedERC20",
          "name": "tokenContract",
          "type": "address"
        },
        {
          "internalType": "address",
          "name": "tokenHolder",
          "type": "address"
        }
      ],
      "stateMutability": "nonpayable",
      "type": "constructor"
    },
    {
      "anonymous": false,
      "inputs": [
        {
          "indexed": true,
          "internalType": "address",
          "name": "previousOwner",
          "type": "address"
        },
        {
          "indexed": true,
          "internalType": "address",
          "name": "newOwner",
          "type": "address"
        }
      ],
      "name": "OwnershipTransferred",
      "type": "event"
    },
    {
      "anonymous": false,
      "inputs": [
        {
          "indexed": false,
          "internalType": "address",
          "name": "account",
          "type": "address"
        }
      ],
      "name": "Paused",
      "type": "event"
    },
    {
      "anonymous": false,
      "inputs": [
        {
          "indexed": false,
          "internalType": "address",
          "name": "account",
          "type": "address"
        }
      ],
      "name": "Unpaused",
      "type": "event"
    },
    {
      "inputs": [
        {
          "internalType": "address",
          "name": "",
          "type": "address"
        },
        {
          "internalType": "address",
          "name": "from",
          "type": "address"
        },
        {
          "internalType": "uint256[]",
          "name": "ids",
          "type": "uint256[]"
        },
        {
          "internalType": "uint256[]",
          "name": "values",
          "type": "uint256[]"
        },
        {
          "internalType": "bytes",
          "name": "",
          "type": "bytes"
        }
      ],
      "name": "onERC1155BatchReceived",
      "outputs": [
        {
          "internalType": "bytes4",
          "name": "",
          "type": "bytes4"
        }
      ],
      "stateMutability": "nonpayable",
      "type": "function"
    },
    {
      "inputs": [
        {
          "internalType": "address",
          "name": "",
          "type": "address"
        },
        {
          "internalType": "address",
          "name": "from",
          "type": "address"
        },
        {
          "internalType": "uint256",
          "name": "id",
          "type": "uint256"
        },
        {
          "internalType": "uint256",
          "name": "value",
          "type": "uint256"
        },
        {
          "internalType": "bytes",
          "name": "",
          "type": "bytes"
        }
      ],
      "name": "onERC1155Received",
      "outputs": [
        {
          "internalType": "bytes4",
          "name": "",
          "type": "bytes4"
        }
      ],
      "stateMutability": "nonpayable",
      "type": "function"
    },
    {
      "inputs": [],
      "name": "owner",
      "outputs": [
        {
          "internalType": "address",
          "name": "",
          "type": "address"
        }
      ],
      "stateMutability": "view",
      "type": "function"
    },
    {
      "inputs": [],
      "name": "pause",
      "outputs": [],
      "stateMutability": "nonpayable",
      "type": "function"
    },
    {
      "inputs": [],
      "name": "paused",
      "outputs": [
        {
          "internalType": "bool",
          "name": "",
          "type": "bool"
        }
      ],
      "stateMutability": "view",
      "type": "function"
    },
    {
      "inputs": [
        {
          "internalType": "address",
          "name": "tokenHolder_",
          "type": "address"
        }
      ],
      "name": "setTokenHolder",
      "outputs": [],
      "stateMutability": "nonpayable",
      "type": "function"
    },
    {
      "inputs": [
        {
          "internalType": "bytes4",
          "name": "interfaceId",
          "type": "bytes4"
        }
      ],
      "name": "supportsInterface",
      "outputs": [
        {
          "internalType": "bool",
          "name": "",
          "type": "bool"
        }
      ],
      "stateMutability": "view",
      "type": "function"
    },
    {
      "inputs": [],
      "name": "tokenContract",
      "outputs": [
        {
          "internalType": "contract IWrappedERC20",
          "name": "",
          "type": "address"
        }
      ],
      "stateMutability": "view",
      "type": "function"
    },
    {
      "inputs": [],
      "name": "tokenHolder",
      "outputs": [
        {
          "internalType": "address",
          "name": "",
          "type": "address"
        }
      ],
      "stateMutability": "view",
      "type": "function"
    },
    {
      "inputs": [
        {
          "internalType": "address",
          "name": "newOwner",
          "type": "address"
        }
      ],
      "name": "transferOwnership",
      "outputs": [],
      "stateMutability": "nonpayable",
      "type": "function"
    },
    {
      "inputs": [],
      "name": "unpause",
      "outputs": [],
      "stateMutability": "nonpayable",
      "type": "function"
    },
    {
      "inputs": [],
      "name": "vouchersContract",
      "outputs": [
        {
          "internalType": "contract IERC1155InventoryBurnable",
          "name": "",
          "type": "address"
        }
      ],
      "stateMutability": "view",
      "type": "function"
    }
  ],
  "bytecode": "0x60c060405234801561001057600080fd5b506040516110b03803806110b08339818101604052606081101561003357600080fd5b5080516020820151604092830151600080546001600160a01b03191633908117825594519394929391928592859285929091819083907f8be0079c531659141344cd1fd0a4f28419497f9722a3daafe3b4186f6b6457e0908290a35060008054911515600160a01b0260ff60a01b199092169190911781556001600160601b0319606085811b821660805284901b1660a052600180546001600160a01b039384166001600160a01b03199091161790559281169550169250610f8991506101279039806104ad52806106e4528061088d5250806104895280610516528061058a5280610752528061080b5250610f896000f3fe608060405234801561001057600080fd5b50600436106100d45760003560e01c80638456cb5911610081578063f23a6e611161005b578063f23a6e61146102e4578063f29d2f2814610379578063f2fde38b1461039f576100d4565b80638456cb59146101725780638da5cb5b1461017a578063bc197c8114610182576100d4565b8063474f2891116100b2578063474f28911461015a57806355a373d6146101625780635c975abb1461016a576100d4565b806301ffc9a7146100d95780633f4ba83a1461012c578063420a83e714610136575b600080fd5b610118600480360360208110156100ef57600080fd5b50357fffffffff00000000000000000000000000000000000000000000000000000000166103c5565b604080519115158252519081900360200190f35b61013461045e565b005b61013e610478565b604080516001600160a01b039092168252519081900360200190f35b61013e610487565b61013e6104ab565b6101186104cf565b6101346104df565b61013e6104f2565b6102af600480360360a081101561019857600080fd5b6001600160a01b0382358116926020810135909116918101906060810160408201356401000000008111156101cc57600080fd5b8201836020820111156101de57600080fd5b8035906020019184602083028401116401000000008311171561020057600080fd5b91939092909160208101903564010000000081111561021e57600080fd5b82018360208201111561023057600080fd5b8035906020019184602083028401116401000000008311171561025257600080fd5b91939092909160208101903564010000000081111561027057600080fd5b82018360208201111561028257600080fd5b803590602001918460018302840111640100000000831117156102a457600080fd5b509092509050610501565b604080517fffffffff000000000000000000000000000000000000000000000000000000009092168252519081900360200190f35b6102af600480360360a08110156102fa57600080fd5b6001600160a01b03823581169260208101359091169160408201359160608101359181019060a08101608082013564010000000081111561033a57600080fd5b82018360208201111561034c57600080fd5b8035906020019184600183028401116401000000008311171561036e57600080fd5b50909250905061073d565b6101346004803603602081101561038f57600080fd5b50356001600160a01b03166108e4565b610134600480360360208110156103b557600080fd5b50356001600160a01b0316610929565b60007fffffffff0000000000000000000000000000000000000000000000000000000082167f01ffc9a700000000000000000000000000000000000000000000000000000000148061045857507fffffffff0000000000000000000000000000000000000000000000000000000082167f4e2312e000000000000000000000000000000000000000000000000000000000145b92915050565b61046e61046961099a565b61099e565b610476610a65565b565b6001546001600160a01b031681565b7f000000000000000000000000000000000000000000000000000000000000000081565b7f000000000000000000000000000000000000000000000000000000000000000081565b600054600160a01b900460ff1681565b6104ea61046961099a565b610476610adb565b6000546001600160a01b031690565b600061050b610b3a565b336001600160a01b037f00000000000000000000000000000000000000000000000000000000000000001614610588576040805162461bcd60e51b815260206004820152601660248201527f52656465656d65723a2077726f6e672073656e64657200000000000000000000604482015290519081900360640190fd5b7f00000000000000000000000000000000000000000000000000000000000000006001600160a01b0316638053493430898989896040518663ffffffff1660e01b815260040180866001600160a01b0316815260200180602001806020018381038352878782818152602001925060200280828437600083820152601f01601f19169091018481038352858152602090810191508690860280828437600081840152601f19601f820116905080830192505050975050505050505050600060405180830381600087803b15801561065e57600080fd5b505af1158015610672573d6000803e3d6000fd5b505050506000805b8088146106d257600089898381811061068f57fe5b9050602002013590506106c76106c08989858181106106aa57fe5b905060200201356106ba84610b99565b90610b9c565b8490610bfc565b92505060010161067a565b5060015461070e906001600160a01b037f0000000000000000000000000000000000000000000000000000000000000000811691168b84610c56565b507fbc197c81000000000000000000000000000000000000000000000000000000009998505050505050505050565b6000610747610b3a565b336001600160a01b037f000000000000000000000000000000000000000000000000000000000000000016146107c4576040805162461bcd60e51b815260206004820152601660248201527f52656465656d65723a2077726f6e672073656e64657200000000000000000000604482015290519081900360640190fd5b604080517f124d91e5000000000000000000000000000000000000000000000000000000008152306004820152602481018790526044810186905290516001600160a01b037f0000000000000000000000000000000000000000000000000000000000000000169163124d91e591606480830192600092919082900301818387803b15801561085257600080fd5b505af1158015610866573d6000803e3d6000fd5b505050506000610879856106ba88610b99565b6001549091506108b7906001600160a01b037f0000000000000000000000000000000000000000000000000000000000000000811691168984610c56565b507ff23a6e6100000000000000000000000000000000000000000000000000000000979650505050505050565b6108ef61046961099a565b600180547fffffffffffffffffffffffff0000000000000000000000000000000000000000166001600160a01b0392909216919091179055565b61093461046961099a565b600080547fffffffffffffffffffffffff0000000000000000000000000000000000000000166001600160a01b0383811691821780845560405192939116917f8be0079c531659141344cd1fd0a4f28419497f9722a3daafe3b4186f6b6457e09190a350565b3390565b306001600160a01b0316638da5cb5b6040518163ffffffff1660e01b815260040160206040518083038186803b1580156109d757600080fd5b505afa1580156109eb573d6000803e3d6000fd5b505050506040513d6020811015610a0157600080fd5b50516001600160a01b03828116911614610a62576040805162461bcd60e51b815260206004820152601660248201527f4f776e61626c653a206e6f7420746865206f776e657200000000000000000000604482015290519081900360640190fd5b50565b610a6d610ce4565b600080547fffffffffffffffffffffff00ffffffffffffffffffffffffffffffffffffffff1690557f5db9ee0a495bf2e6ff9c91a7834c1ba4fdd244a5e8aa4e537bd38aeae4b073aa610abe61099a565b604080516001600160a01b039092168252519081900360200190a1565b610ae3610b3a565b600080547fffffffffffffffffffffff00ffffffffffffffffffffffffffffffffffffffff16600160a01b1790557f62e78cea01bee320cd4e420270b5ea74000d11b0c9f74754ebdbfc544b05a258610abe61099a565b600054600160a01b900460ff1615610476576040805162461bcd60e51b815260206004820152601060248201527f5061757361626c653a2070617573656400000000000000000000000000000000604482015290519081900360640190fd5b90565b600082610bab57506000610458565b82820282848281610bb857fe5b0414610bf55760405162461bcd60e51b8152600401808060200182810382526021815260200180610f336021913960400191505060405180910390fd5b9392505050565b600082820183811015610bf5576040805162461bcd60e51b815260206004820152601b60248201527f536166654d6174683a206164646974696f6e206f766572666c6f770000000000604482015290519081900360640190fd5b604080516001600160a01b0380861660248301528416604482015260648082018490528251808303909101815260849091019091526020810180517bffffffffffffffffffffffffffffffffffffffffffffffffffffffff167f23b872dd00000000000000000000000000000000000000000000000000000000179052610cde908590610d42565b50505050565b600054600160a01b900460ff16610476576040805162461bcd60e51b815260206004820152601460248201527f5061757361626c653a206e6f7420706175736564000000000000000000000000604482015290519081900360640190fd5b81610d556001600160a01b038216610f2c565b610da6576040805162461bcd60e51b815260206004820152601a60248201527f4552433230577261707065723a206e6f6e2d636f6e7472616374000000000000604482015290519081900360640190fd5b600080826001600160a01b0316846040518082805190602001908083835b60208310610de35780518252601f199092019160209182019101610dc4565b6001836020036101000a0380198251168184511680821785525050505050509050019150506000604051808303816000865af19150503d8060008114610e45576040519150601f19603f3d011682016040523d82523d6000602084013e610e4a565b606091505b50915091508115610ec957805115610ec457808060200190516020811015610e7157600080fd5b5051610ec4576040805162461bcd60e51b815260206004820152601e60248201527f4552433230577261707065723a206f7065726174696f6e206661696c65640000604482015290519081900360640190fd5b610f25565b8051610f1c576040805162461bcd60e51b815260206004820152601e60248201527f4552433230577261707065723a206f7065726174696f6e206661696c65640000604482015290519081900360640190fd5b80518082602001fd5b5050505050565b3b15159056fe536166654d6174683a206d756c7469706c69636174696f6e206f766572666c6f77a2646970667358221220c8b68ffd10530eb55acefeadb405c5100f89292cdd086b2eb3996e3b1e5a825c64736f6c63430007060033",
  "linkReferences": {},
  "deployedLinkReferences": {}
}