{
  "_format": "hh-sol-artifact-1",
  "contractName": "QUIDDMock",
  "sourceName": "contracts/mocks/token/ERC20/QUIDDMock.sol",
  "abi": [
    {
      "inputs": [
        {
          "internalType": "address[]",
          "name": "recipients",
          "type": "address[]"
        },
        {
          "internalType": "uint256[]",
          "name": "values",
          "type": "uint256[]"
        },
        {
          "internalType": "contract IForwarderRegistry",
          "name": "forwarderRegistry",
          "type": "address"
        },
        {
          "internalType": "address",
          "name": "universalForwarder",
          "type": "address"
        }
      ],
      "stateMutability": "nonpayable",
      "type": "constructor"
    },
    {
      "anonymous": false,
      "inputs": [
        {
          "indexed": true,
          "internalType": "address",
          "name": "_owner",
          "type": "address"
        },
        {
          "indexed": true,
          "internalType": "address",
          "name": "_spender",
          "type": "address"
        },
        {
          "indexed": false,
          "internalType": "uint256",
          "name": "_value",
          "type": "uint256"
        }
      ],
      "name": "Approval",
      "type": "event"
    },
    {
      "anonymous": false,
      "inputs": [
        {
          "indexed": true,
          "internalType": "address",
          "name": "previousOwner",
          "type": "address"
        },
        {
          "indexed": true,
          "internalType": "address",
          "name": "newOwner",
          "type": "address"
        }
      ],
      "name": "OwnershipTransferred",
      "type": "event"
    },
    {
      "anonymous": false,
      "inputs": [
        {
          "indexed": true,
          "internalType": "address",
          "name": "_from",
          "type": "address"
        },
        {
          "indexed": true,
          "internalType": "address",
          "name": "_to",
          "type": "address"
        },
        {
          "indexed": false,
          "internalType": "uint256",
          "name": "_value",
          "type": "uint256"
        }
      ],
      "name": "Transfer",
      "type": "event"
    },
    {
      "inputs": [],
      "name": "DOMAIN_SEPARATOR",
      "outputs": [
        {
          "internalType": "bytes32",
          "name": "",
          "type": "bytes32"
        }
      ],
      "stateMutability": "view",
      "type": "function"
    },
    {
      "inputs": [
        {
          "internalType": "address",
          "name": "owner",
          "type": "address"
        },
        {
          "internalType": "address",
          "name": "spender",
          "type": "address"
        }
      ],
      "name": "allowance",
      "outputs": [
        {
          "internalType": "uint256",
          "name": "",
          "type": "uint256"
        }
      ],
      "stateMutability": "view",
      "type": "function"
    },
    {
      "inputs": [
        {
          "internalType": "address",
          "name": "spender",
          "type": "address"
        },
        {
          "internalType": "uint256",
          "name": "value",
          "type": "uint256"
        }
      ],
      "name": "approve",
      "outputs": [
        {
          "internalType": "bool",
          "name": "",
          "type": "bool"
        }
      ],
      "stateMutability": "nonpayable",
      "type": "function"
    },
    {
      "inputs": [
        {
          "internalType": "address",
          "name": "account",
          "type": "address"
        }
      ],
      "name": "balanceOf",
      "outputs": [
        {
          "internalType": "uint256",
          "name": "",
          "type": "uint256"
        }
      ],
      "stateMutability": "view",
      "type": "function"
    },
    {
      "inputs": [
        {
          "internalType": "address[]",
          "name": "recipients",
          "type": "address[]"
        },
        {
          "internalType": "uint256[]",
          "name": "values",
          "type": "uint256[]"
        }
      ],
      "name": "batchTransfer",
      "outputs": [
        {
          "internalType": "bool",
          "name": "",
          "type": "bool"
        }
      ],
      "stateMutability": "nonpayable",
      "type": "function"
    },
    {
      "inputs": [
        {
          "internalType": "address",
          "name": "from",
          "type": "address"
        },
        {
          "internalType": "address[]",
          "name": "recipients",
          "type": "address[]"
        },
        {
          "internalType": "uint256[]",
          "name": "values",
          "type": "uint256[]"
        }
      ],
      "name": "batchTransferFrom",
      "outputs": [
        {
          "internalType": "bool",
          "name": "",
          "type": "bool"
        }
      ],
      "stateMutability": "nonpayable",
      "type": "function"
    },
    {
      "inputs": [],
      "name": "decimals",
      "outputs": [
        {
          "internalType": "uint8",
          "name": "",
          "type": "uint8"
        }
      ],
      "stateMutability": "view",
      "type": "function"
    },
    {
      "inputs": [
        {
          "internalType": "address",
          "name": "spender",
          "type": "address"
        },
        {
          "internalType": "uint256",
          "name": "subtractedValue",
          "type": "uint256"
        }
      ],
      "name": "decreaseAllowance",
      "outputs": [
        {
          "internalType": "bool",
          "name": "",
          "type": "bool"
        }
      ],
      "stateMutability": "nonpayable",
      "type": "function"
    },
    {
      "inputs": [],
      "name": "deploymentChainId",
      "outputs": [
        {
          "internalType": "uint256",
          "name": "",
          "type": "uint256"
        }
      ],
      "stateMutability": "view",
      "type": "function"
    },
    {
      "inputs": [
        {
          "internalType": "address",
          "name": "spender",
          "type": "address"
        },
        {
          "internalType": "uint256",
          "name": "addedValue",
          "type": "uint256"
        }
      ],
      "name": "increaseAllowance",
      "outputs": [
        {
          "internalType": "bool",
          "name": "",
          "type": "bool"
        }
      ],
      "stateMutability": "nonpayable",
      "type": "function"
    },
    {
      "inputs": [
        {
          "internalType": "address",
          "name": "forwarder",
          "type": "address"
        }
      ],
      "name": "isTrustedForwarder",
      "outputs": [
        {
          "internalType": "bool",
          "name": "",
          "type": "bool"
        }
      ],
      "stateMutability": "view",
      "type": "function"
    },
    {
      "inputs": [
        {
          "internalType": "address",
          "name": "to",
          "type": "address"
        },
        {
          "internalType": "uint256",
          "name": "value",
          "type": "uint256"
        }
      ],
      "name": "mint",
      "outputs": [],
      "stateMutability": "nonpayable",
      "type": "function"
    },
    {
      "inputs": [],
      "name": "msgData",
      "outputs": [
        {
          "internalType": "bytes",
          "name": "ret",
          "type": "bytes"
        }
      ],
      "stateMutability": "view",
      "type": "function"
    },
    {
      "inputs": [],
      "name": "name",
      "outputs": [
        {
          "internalType": "string",
          "name": "",
          "type": "string"
        }
      ],
      "stateMutability": "view",
      "type": "function"
    },
    {
      "inputs": [
        {
          "internalType": "address",
          "name": "",
          "type": "address"
        }
      ],
      "name": "nonces",
      "outputs": [
        {
          "internalType": "uint256",
          "name": "",
          "type": "uint256"
        }
      ],
      "stateMutability": "view",
      "type": "function"
    },
    {
      "inputs": [],
      "name": "owner",
      "outputs": [
        {
          "internalType": "address",
          "name": "",
          "type": "address"
        }
      ],
      "stateMutability": "view",
      "type": "function"
    },
    {
      "inputs": [
        {
          "internalType": "address",
          "name": "owner",
          "type": "address"
        },
        {
          "internalType": "address",
          "name": "spender",
          "type": "address"
        },
        {
          "internalType": "uint256",
          "name": "value",
          "type": "uint256"
        },
        {
          "internalType": "uint256",
          "name": "deadline",
          "type": "uint256"
        },
        {
          "internalType": "uint8",
          "name": "v",
          "type": "uint8"
        },
        {
          "internalType": "bytes32",
          "name": "r",
          "type": "bytes32"
        },
        {
          "internalType": "bytes32",
          "name": "s",
          "type": "bytes32"
        }
      ],
      "name": "permit",
      "outputs": [],
      "stateMutability": "nonpayable",
      "type": "function"
    },
    {
      "inputs": [
        {
          "internalType": "address",
          "name": "to",
          "type": "address"
        },
        {
          "internalType": "uint256",
          "name": "amount",
          "type": "uint256"
        },
        {
          "internalType": "bytes",
          "name": "data",
          "type": "bytes"
        }
      ],
      "name": "safeTransfer",
      "outputs": [
        {
          "internalType": "bool",
          "name": "",
          "type": "bool"
        }
      ],
      "stateMutability": "nonpayable",
      "type": "function"
    },
    {
      "inputs": [
        {
          "internalType": "address",
          "name": "from",
          "type": "address"
        },
        {
          "internalType": "address",
          "name": "to",
          "type": "address"
        },
        {
          "internalType": "uint256",
          "name": "amount",
          "type": "uint256"
        },
        {
          "internalType": "bytes",
          "name": "data",
          "type": "bytes"
        }
      ],
      "name": "safeTransferFrom",
      "outputs": [
        {
          "internalType": "bool",
          "name": "",
          "type": "bool"
        }
      ],
      "stateMutability": "nonpayable",
      "type": "function"
    },
    {
      "inputs": [
        {
          "internalType": "string",
          "name": "tokenURI_",
          "type": "string"
        }
      ],
      "name": "setTokenURI",
      "outputs": [],
      "stateMutability": "nonpayable",
      "type": "function"
    },
    {
      "inputs": [
        {
          "internalType": "bytes4",
          "name": "interfaceId",
          "type": "bytes4"
        }
      ],
      "name": "supportsInterface",
      "outputs": [
        {
          "internalType": "bool",
          "name": "",
          "type": "bool"
        }
      ],
      "stateMutability": "view",
      "type": "function"
    },
    {
      "inputs": [],
      "name": "symbol",
      "outputs": [
        {
          "internalType": "string",
          "name": "",
          "type": "string"
        }
      ],
      "stateMutability": "view",
      "type": "function"
    },
    {
      "inputs": [],
      "name": "tokenURI",
      "outputs": [
        {
          "internalType": "string",
          "name": "",
          "type": "string"
        }
      ],
      "stateMutability": "view",
      "type": "function"
    },
    {
      "inputs": [],
      "name": "totalSupply",
      "outputs": [
        {
          "internalType": "uint256",
          "name": "",
          "type": "uint256"
        }
      ],
      "stateMutability": "view",
      "type": "function"
    },
    {
      "inputs": [
        {
          "internalType": "address",
          "name": "to",
          "type": "address"
        },
        {
          "internalType": "uint256",
          "name": "value",
          "type": "uint256"
        }
      ],
      "name": "transfer",
      "outputs": [
        {
          "internalType": "bool",
          "name": "",
          "type": "bool"
        }
      ],
      "stateMutability": "nonpayable",
      "type": "function"
    },
    {
      "inputs": [
        {
          "internalType": "address",
          "name": "from",
          "type": "address"
        },
        {
          "internalType": "address",
          "name": "to",
          "type": "address"
        },
        {
          "internalType": "uint256",
          "name": "value",
          "type": "uint256"
        }
      ],
      "name": "transferFrom",
      "outputs": [
        {
          "internalType": "bool",
          "name": "",
          "type": "bool"
        }
      ],
      "stateMutability": "nonpayable",
      "type": "function"
    },
    {
      "inputs": [
        {
          "internalType": "address",
          "name": "newOwner",
          "type": "address"
        }
      ],
      "name": "transferOwnership",
      "outputs": [],
      "stateMutability": "nonpayable",
      "type": "function"
    }
  ],
  "bytecode": "0x6101206040523480156200001257600080fd5b5060405162002cf638038062002cf6833981810160405260808110156200003857600080fd5b81019080805160405193929190846401000000008211156200005957600080fd5b9083019060208201858111156200006f57600080fd5b82518660208202830111640100000000821117156200008d57600080fd5b82525081516020918201928201910280838360005b83811015620000bc578181015183820152602001620000a2565b5050505090500160405260200180516040519392919084640100000000821115620000e657600080fd5b908301906020820185811115620000fc57600080fd5b82518660208202830111640100000000821117156200011a57600080fd5b82525081516020918201928201910280838360005b83811015620001495781810151838201526020016200012f565b50505050919091016040818152602084810151948201518284018352600580855264145552511160da1b83860181815285518087018752928352828501919091528451938401909452600083528451969850909650899589955088948894339487948794909260129291620001c19160019162000577565b508251620001d790600290602086019062000577565b507fff0000000000000000000000000000000000000000000000000000000000000060f883901b1660c05280516200021790600390602084019062000577565b504660808190526200022a8186620002b2565b60a0525050505050606090811b6001600160601b03199081166101005291901b1660e052600780546001600160a01b0319166001600160a01b0383169081179091556040516000907f8be0079c531659141344cd1fd0a4f28419497f9722a3daafe3b4186f6b6457e0908290a350620002a484846200033c565b505050505050505062000623565b8051602091820120604080517f8b73c3c69bb8fe3d512ecc4cf759cc79239f7b179b0ffacaa9a75d522b39400f81850152808201929092527fc89efdaa54c0f20c7adf612882df0950f5a951637e0307cdcb4c672f298b8bc6606083015260808201939093523060a0808301919091528351808303909101815260c0909101909252815191012090565b81518151811462000394576040805162461bcd60e51b815260206004820152601a60248201527f45524332303a20696e636f6e73697374656e7420617272617973000000000000604482015290519081900360640190fd5b6000805b82811462000509576000858281518110620003af57fe5b6020026020010151905060006001600160a01b0316816001600160a01b0316141562000422576040805162461bcd60e51b815260206004820152601360248201527f45524332303a207a65726f206164647265737300000000000000000000000000604482015290519081900360640190fd5b60008583815181106200043157fe5b6020026020010151905080600014620004bd578381018481116200049c576040805162461bcd60e51b815260206004820152601660248201527f45524332303a2076616c756573206f766572666c6f7700000000000000000000604482015290519081900360640190fd5b6001600160a01b038316600090815260046020526040902080548301905593505b6040805182815290516001600160a01b038416916000917fddf252ad1be2c89b69c2b068fc378daa952ba7f163c4a11628f55a4df523b3ef9181900360200190a3505060010162000398565b50801562000571576006548181018181116200056c576040805162461bcd60e51b815260206004820152601660248201527f45524332303a20737570706c79206f766572666c6f7700000000000000000000604482015290519081900360640190fd5b600655505b50505050565b828054600181600116156101000203166002900490600052602060002090601f016020900481019282620005af5760008555620005fa565b82601f10620005ca57805160ff1916838001178555620005fa565b82800160010185558215620005fa579182015b82811115620005fa578251825591602001919060010190620005dd565b50620006089291506200060c565b5090565b5b808211156200060857600081556001016200060d565b60805160a05160c05160f81c60e05160601c6101005160601c6126676200068f600039806110de52806122ab52806123f85250806111195280612270528061230352806123ce5280612459525080610ab9525080610ba3525080610ae0528061173152506126676000f3fe608060405234801561001057600080fd5b50600436106101b95760003560e01c80637ecebe00116100f9578063c4c2bfdc11610097578063dd62ed3e11610071578063dd62ed3e146106f5578063e0df5b6f14610723578063eb79554914610793578063f2fde38b14610818576101b9565b8063c4c2bfdc14610694578063cd0d00961461069c578063d505accf146106a4576101b9565b806395d89b41116100d357806395d89b41146105a4578063a457c2d7146105ac578063a9059cbb146105d8578063b88d4fde14610604576101b9565b80637ecebe001461049857806388d695b2146104be5780638da5cb5b14610580576101b9565b80633644e5151161016657806340c10f191161014057806340c10f191461034c5780634885b2541461037a578063572b6c051461044c57806370a0823114610472576101b9565b80633644e5151461031057806339509351146103185780633c130d9014610344576101b9565b806318160ddd1161019757806318160ddd146102a257806323b872dd146102bc578063313ce567146102f2576101b9565b806301ffc9a7146101be57806306fdde03146101f9578063095ea7b314610276575b600080fd5b6101e5600480360360208110156101d457600080fd5b50356001600160e01b03191661083e565b604080519115158252519081900360200190f35b6102016109df565b6040805160208082528351818301528351919283929083019185019080838360005b8381101561023b578181015183820152602001610223565b50505050905090810190601f1680156102685780820380516001836020036101000a031916815260200191505b509250505060405180910390f35b6101e56004803603604081101561028c57600080fd5b506001600160a01b038135169060200135610a75565b6102aa610a92565b60408051918252519081900360200190f35b6101e5600480360360608110156102d257600080fd5b506001600160a01b03813581169160208101359091169060400135610a98565b6102fa610ab7565b6040805160ff9092168252519081900360200190f35b6102aa610adb565b6101e56004803603604081101561032e57600080fd5b506001600160a01b038135169060200135610bc9565b610201610d37565b6103786004803603604081101561036257600080fd5b506001600160a01b038135169060200135610d98565b005b6101e56004803603606081101561039057600080fd5b6001600160a01b0382351691908101906040810160208201356401000000008111156103bb57600080fd5b8201836020820111156103cd57600080fd5b803590602001918460208302840111640100000000831117156103ef57600080fd5b91939092909160208101903564010000000081111561040d57600080fd5b82018360208201111561041f57600080fd5b8035906020019184602083028401116401000000008311171561044157600080fd5b509092509050610da6565b6101e56004803603602081101561046257600080fd5b50356001600160a01b03166110da565b6102aa6004803603602081101561048857600080fd5b50356001600160a01b0316611153565b6102aa600480360360208110156104ae57600080fd5b50356001600160a01b031661116e565b6101e5600480360360408110156104d457600080fd5b8101906020810181356401000000008111156104ef57600080fd5b82018360208201111561050157600080fd5b8035906020019184602083028401116401000000008311171561052357600080fd5b91939092909160208101903564010000000081111561054157600080fd5b82018360208201111561055357600080fd5b8035906020019184602083028401116401000000008311171561057557600080fd5b509092509050611180565b61058861148f565b604080516001600160a01b039092168252519081900360200190f35b61020161149e565b6101e5600480360360408110156105c257600080fd5b506001600160a01b0381351690602001356114fc565b6101e5600480360360408110156105ee57600080fd5b506001600160a01b03813516906020013561156b565b6101e56004803603608081101561061a57600080fd5b6001600160a01b0382358116926020810135909116916040820135919081019060808101606082013564010000000081111561065557600080fd5b82018360208201111561066757600080fd5b8035906020019184600183028401116401000000008311171561068957600080fd5b50909250905061157f565b610201611720565b6102aa61172f565b610378600480360360e08110156106ba57600080fd5b506001600160a01b03813581169160208101359091169060408101359060608101359060ff6080820135169060a08101359060c00135611753565b6102aa6004803603604081101561070b57600080fd5b506001600160a01b03813581169160200135166119d2565b6103786004803603602081101561073957600080fd5b81019060208101813564010000000081111561075457600080fd5b82018360208201111561076657600080fd5b8035906020019184600183028401116401000000008311171561078857600080fd5b5090925090506119fd565b6101e5600480360360608110156107a957600080fd5b6001600160a01b03823516916020810135918101906060810160408201356401000000008111156107d957600080fd5b8201836020820111156107eb57600080fd5b8035906020019184600183028401116401000000008311171561080d57600080fd5b509092509050611a1e565b6103786004803603602081101561082e57600080fd5b50356001600160a01b0316611bbd565b60006001600160e01b031982167f01ffc9a70000000000000000000000000000000000000000000000000000000014806108a157506001600160e01b031982167f36372b0700000000000000000000000000000000000000000000000000000000145b806108d557506001600160e01b031982167fa219a02500000000000000000000000000000000000000000000000000000000145b8061090957506001600160e01b031982167f3c130d9000000000000000000000000000000000000000000000000000000000145b8061093d57506001600160e01b031982167f9d07518600000000000000000000000000000000000000000000000000000000145b8061097157506001600160e01b031982167fc05327e600000000000000000000000000000000000000000000000000000000145b806109a557506001600160e01b031982167f53f41a9700000000000000000000000000000000000000000000000000000000145b806109d957506001600160e01b031982167f9d8ff7da00000000000000000000000000000000000000000000000000000000145b92915050565b60018054604080516020601f60026000196101008789161502019095169490940493840181900481028201810190925282815260609390929091830182828015610a6a5780601f10610a3f57610100808354040283529160200191610a6a565b820191906000526020600020905b815481529060010190602001808311610a4d57829003601f168201915b505050505090505b90565b6000610a89610a82611c30565b8484611c3a565b50600192915050565b60065490565b6000610aad610aa5611c30565b858585611cf7565b5060019392505050565b7f000000000000000000000000000000000000000000000000000000000000000090565b6000467f00000000000000000000000000000000000000000000000000000000000000008114610ba15760018054604080516020600284861615610100026000190190941693909304601f8101849004840282018401909252818152610b9c93859391929091830182828015610b925780601f10610b6757610100808354040283529160200191610b92565b820191906000526020600020905b815481529060010190602001808311610b7557829003601f168201915b5050505050611d2c565b610bc3565b7f00000000000000000000000000000000000000000000000000000000000000005b91505090565b60006001600160a01b038316610c26576040805162461bcd60e51b815260206004820152601b60248201527f45524332303a207a65726f2061646472657373207370656e6465720000000000604482015290519081900360640190fd5b6000610c30611c30565b6001600160a01b038082166000908152600560209081526040808320938916835292905220549091508315610ce157808401818111610cb6576040805162461bcd60e51b815260206004820152601960248201527f45524332303a20616c6c6f77616e6365206f766572666c6f7700000000000000604482015290519081900360640190fd5b6001600160a01b038084166000908152600560209081526040808320938a1683529290522081905590505b846001600160a01b0316826001600160a01b03167f8c5be1e5ebec7d5bd14f71427d1e84f3dd0314c0f7b2291e5b200ac8c7c3b925836040518082815260200191505060405180910390a3506001949350505050565b60038054604080516020601f6002600019610100600188161502019095169490940493840181900481028201810190925282815260609390929091830182828015610a6a5780601f10610a3f57610100808354040283529160200191610a6a565b610da28282611db6565b5050565b600083828114610dfd576040805162461bcd60e51b815260206004820152601a60248201527f45524332303a20696e636f6e73697374656e7420617272617973000000000000604482015290519081900360640190fd5b6001600160a01b0387166000908152600460205260408120549080805b84811461100f5760008a8a83818110610e2f57fe5b905060200201356001600160a01b0316905060006001600160a01b0316816001600160a01b03161415610ea9576040805162461bcd60e51b815260206004820152601660248201527f45524332303a20746f207a65726f206164647265737300000000000000000000604482015290519081900360640190fd5b6000898984818110610eb757fe5b90506020020135905080600014610fba57848101858111610f1f576040805162461bcd60e51b815260206004820152601660248201527f45524332303a2076616c756573206f766572666c6f7700000000000000000000604482015290519081900360640190fd5b809550826001600160a01b03168e6001600160a01b031614610f5e576001600160a01b0383166000908152600460205260409020805483019055610fb8565b86821115610fb3576040805162461bcd60e51b815260206004820152601b60248201527f45524332303a20696e73756666696369656e742062616c616e63650000000000604482015290519081900360640190fd5b938101935b505b816001600160a01b03168d6001600160a01b03167fddf252ad1be2c89b69c2b068fc378daa952ba7f163c4a11628f55a4df523b3ef836040518082815260200191505060405180910390a35050600101610e1a565b50811580159061101f5750808214155b156110995781830383811061107b576040805162461bcd60e51b815260206004820152601b60248201527f45524332303a20696e73756666696369656e742062616c616e63650000000000604482015290519081900360640190fd5b6001600160a01b038b16600090815260046020526040902090820190555b60006110a3611c30565b9050806001600160a01b03168b6001600160a01b0316146110c9576110c98b8285611ed9565b5060019a9950505050505050505050565b60007f00000000000000000000000000000000000000000000000000000000000000006001600160a01b0316826001600160a01b031614806109d957507f00000000000000000000000000000000000000000000000000000000000000006001600160a01b0316826001600160a01b0316149050919050565b6001600160a01b031660009081526004602052604090205490565b60006020819052908152604090205481565b6000838281146111d7576040805162461bcd60e51b815260206004820152601a60248201527f45524332303a20696e636f6e73697374656e7420617272617973000000000000604482015290519081900360640190fd5b60006111e1611c30565b6001600160a01b03811660009081526004602052604081205491925080805b8581146113f55760008b8b8381811061121557fe5b905060200201356001600160a01b0316905060006001600160a01b0316816001600160a01b0316141561128f576040805162461bcd60e51b815260206004820152601660248201527f45524332303a20746f207a65726f206164647265737300000000000000000000604482015290519081900360640190fd5b60008a8a8481811061129d57fe5b905060200201359050806000146113a057848101858111611305576040805162461bcd60e51b815260206004820152601660248201527f45524332303a2076616c756573206f766572666c6f7700000000000000000000604482015290519081900360640190fd5b809550826001600160a01b0316886001600160a01b031614611344576001600160a01b038316600090815260046020526040902080548301905561139e565b86821115611399576040805162461bcd60e51b815260206004820152601b60248201527f45524332303a20696e73756666696369656e742062616c616e63650000000000604482015290519081900360640190fd5b938101935b505b816001600160a01b0316876001600160a01b03167fddf252ad1be2c89b69c2b068fc378daa952ba7f163c4a11628f55a4df523b3ef836040518082815260200191505060405180910390a35050600101611200565b5081158015906114055750808214155b1561147f57818303838110611461576040805162461bcd60e51b815260206004820152601b60248201527f45524332303a20696e73756666696369656e742062616c616e63650000000000604482015290519081900360640190fd5b6001600160a01b038516600090815260046020526040902090820190555b5060019998505050505050505050565b6007546001600160a01b031690565b60028054604080516020601f6000196101006001871615020190941685900493840181900481028201810190925282815260609390929091830182828015610a6a5780601f10610a3f57610100808354040283529160200191610a6a565b60006001600160a01b038316611559576040805162461bcd60e51b815260206004820152601b60248201527f45524332303a207a65726f2061646472657373207370656e6465720000000000604482015290519081900360640190fd5b610a89611564611c30565b8484611ed9565b6000610a89611578611c30565b8484611fe8565b60008061158a611c30565b905061159881888888611cf7565b6115aa866001600160a01b031661214f565b15611713577f4fc35859000000000000000000000000000000000000000000000000000000007bffffffffffffffffffffffffffffffffffffffffffffffffffffffff1916866001600160a01b0316634fc35859838a8989896040518663ffffffff1660e01b815260040180866001600160a01b03168152602001856001600160a01b03168152602001848152602001806020018281038252848482818152602001925080828437600081840152601f19601f8201169050808301925050509650505050505050602060405180830381600087803b15801561168b57600080fd5b505af115801561169f573d6000803e3d6000fd5b505050506040513d60208110156116b557600080fd5b50516001600160e01b03191614611713576040805162461bcd60e51b815260206004820152601760248201527f45524332303a207472616e736665722072656675736564000000000000000000604482015290519081900360640190fd5b5060019695505050505050565b606061172a612155565b905090565b7f000000000000000000000000000000000000000000000000000000000000000081565b6001600160a01b0387166117ae576040805162461bcd60e51b815260206004820152601960248201527f45524332303a207a65726f2061646472657373206f776e657200000000000000604482015290519081900360640190fd5b83421115611803576040805162461bcd60e51b815260206004820152601560248201527f45524332303a2065787069726564207065726d69740000000000000000000000604482015290519081900360640190fd5b6001600160a01b0380881660008181526020818152604080832080546001810190915581517f6e71edae12b1b97f4d1f60370fef10105fa2faae0126114a169c64845d6126c98185015280830195909552948b166060850152608084018a905260a084019490945260c08084018990528451808503909101815260e09093019093528151919092012090611895610adb565b8260405160200180807f190100000000000000000000000000000000000000000000000000000000000081525060020183815260200182815260200192505050604051602081830303815290604052805190602001209050600060018287878760405160008152602001604052604051808581526020018460ff1681526020018381526020018281526020019450505050506020604051602081039080840390855afa158015611949573d6000803e3d6000fd5b505050602060405103519050896001600160a01b0316816001600160a01b0316146119bb576040805162461bcd60e51b815260206004820152601560248201527f45524332303a20696e76616c6964207065726d69740000000000000000000000604482015290519081900360640190fd5b6119c68a8a8a611c3a565b50505050505050505050565b6001600160a01b03918216600090815260056020908152604080832093909416825291909152205490565b611a0d611a08611c30565b612199565b611a196003838361254a565b505050565b600080611a29611c30565b9050611a36818787611fe8565b611a48866001600160a01b031661214f565b15611bb1577f4fc35859000000000000000000000000000000000000000000000000000000007bffffffffffffffffffffffffffffffffffffffffffffffffffffffff1916866001600160a01b0316634fc3585983848989896040518663ffffffff1660e01b815260040180866001600160a01b03168152602001856001600160a01b03168152602001848152602001806020018281038252848482818152602001925080828437600081840152601f19601f8201169050808301925050509650505050505050602060405180830381600087803b158015611b2957600080fd5b505af1158015611b3d573d6000803e3d6000fd5b505050506040513d6020811015611b5357600080fd5b50516001600160e01b03191614611bb1576040805162461bcd60e51b815260206004820152601760248201527f45524332303a207472616e736665722072656675736564000000000000000000604482015290519081900360640190fd5b50600195945050505050565b611bc8611a08611c30565b600780547fffffffffffffffffffffffff0000000000000000000000000000000000000000166001600160a01b0383811691821792839055604051919216907f8be0079c531659141344cd1fd0a4f28419497f9722a3daafe3b4186f6b6457e090600090a350565b600061172a612260565b6001600160a01b038216611c95576040805162461bcd60e51b815260206004820152601b60248201527f45524332303a207a65726f2061646472657373207370656e6465720000000000604482015290519081900360640190fd5b6001600160a01b03808416600081815260056020908152604080832094871680845294825291829020859055815185815291517f8c5be1e5ebec7d5bd14f71427d1e84f3dd0314c0f7b2291e5b200ac8c7c3b9259281900390910190a3505050565b611d02838383611fe8565b836001600160a01b0316836001600160a01b031614611d2657611d26838583611ed9565b50505050565b8051602091820120604080517f8b73c3c69bb8fe3d512ecc4cf759cc79239f7b179b0ffacaa9a75d522b39400f81850152808201929092527fc89efdaa54c0f20c7adf612882df0950f5a951637e0307cdcb4c672f298b8bc6606083015260808201939093523060a0808301919091528351808303909101815260c0909101909252815191012090565b6001600160a01b038216611e11576040805162461bcd60e51b815260206004820152601360248201527f45524332303a207a65726f206164647265737300000000000000000000000000604482015290519081900360640190fd5b6006548115611e9357808201818111611e71576040805162461bcd60e51b815260206004820152601660248201527f45524332303a20737570706c79206f766572666c6f7700000000000000000000604482015290519081900360640190fd5b6006556001600160a01b03831660009081526004602052604090208054830190555b6040805183815290516001600160a01b038516916000917fddf252ad1be2c89b69c2b068fc378daa952ba7f163c4a11628f55a4df523b3ef9181900360200190a3505050565b6001600160a01b038084166000908152600560209081526040808320938616835292905220546000198114801590611f1057508115155b15611f9757818103818110611f6c576040805162461bcd60e51b815260206004820152601d60248201527f45524332303a20696e73756666696369656e7420616c6c6f77616e6365000000604482015290519081900360640190fd5b6001600160a01b03808616600090815260056020908152604080832093881683529290522081905590505b826001600160a01b0316846001600160a01b03167f8c5be1e5ebec7d5bd14f71427d1e84f3dd0314c0f7b2291e5b200ac8c7c3b925836040518082815260200191505060405180910390a350505050565b6001600160a01b038216612043576040805162461bcd60e51b815260206004820152601660248201527f45524332303a20746f207a65726f206164647265737300000000000000000000604482015290519081900360640190fd5b80156120ff576001600160a01b0383166000908152600460205260409020548181038181106120b9576040805162461bcd60e51b815260206004820152601b60248201527f45524332303a20696e73756666696369656e742062616c616e63650000000000604482015290519081900360640190fd5b836001600160a01b0316856001600160a01b0316146120fc576001600160a01b038086166000908152600460205260408082208490559186168152208054840190555b50505b816001600160a01b0316836001600160a01b03167fddf252ad1be2c89b69c2b068fc378daa952ba7f163c4a11628f55a4df523b3ef836040518082815260200191505060405180910390a3505050565b3b151590565b606061215f6123c0565b8080601f01602080910402602001604051908101604052809392919081815260200183838082843760009201919091525092935050505090565b306001600160a01b0316638da5cb5b6040518163ffffffff1660e01b815260040160206040518083038186803b1580156121d257600080fd5b505afa1580156121e6573d6000803e3d6000fd5b505050506040513d60208110156121fc57600080fd5b50516001600160a01b0382811691161461225d576040805162461bcd60e51b815260206004820152601660248201527f4f776e61626c653a206e6f7420746865206f776e657200000000000000000000604482015290519081900360640190fd5b50565b6000338161226c612523565b90507f00000000000000000000000000000000000000000000000000000000000000006001600160a01b0316826001600160a01b031614806122df57507f00000000000000000000000000000000000000000000000000000000000000006001600160a01b0316826001600160a01b0316145b156122ed579150610a729050565b6001600160a01b03821632148015906123ac57507f00000000000000000000000000000000000000000000000000000000000000006001600160a01b031663e60125d682846040518363ffffffff1660e01b815260040180836001600160a01b03168152602001826001600160a01b031681526020019250505060206040518083038186803b15801561237f57600080fd5b505afa158015612393573d6000803e3d6000fd5b505050506040513d60208110156123a957600080fd5b50515b156123ba579150610a729050565b50905090565b366000336001600160a01b037f00000000000000000000000000000000000000000000000000000000000000001681148061242c57507f00000000000000000000000000000000000000000000000000000000000000006001600160a01b0316816001600160a01b0316145b156124435761243961252f565b925092505061251f565b6001600160a01b038116321480159061250957507f00000000000000000000000000000000000000000000000000000000000000006001600160a01b031663e60125d661248e612523565b836040518363ffffffff1660e01b815260040180836001600160a01b03168152602001826001600160a01b031681526020019250505060206040518083038186803b1580156124dc57600080fd5b505afa1580156124f0573d6000803e3d6000fd5b505050506040513d602081101561250657600080fd5b50515b156125165761243961252f565b60003692509250505b9091565b60131936013560601c90565b3660006125426013198301828481612609565b915091509091565b828054600181600116156101000203166002900490600052602060002090601f01602090048101928261258057600085556125e4565b82601f106125b7578280017fffffffffffffffffffffffffffffffffffffffffffffffffffffffffffffff008235161785556125e4565b828001600101855582156125e4579182015b828111156125e45782358255916020019190600101906125c9565b506125f09291506125f4565b5090565b5b808211156125f057600081556001016125f5565b60008085851115612618578182fd5b83861115612624578182fd5b505082019391909203915056fea2646970667358221220015957721ffe27765e3f1f7522e9e1229aced8355930f7e23c520bf742e732bd64736f6c63430007060033",
  "linkReferences": {},
  "deployedLinkReferences": {}
}