{
  "_format": "hh-sol-artifact-1",
  "contractName": "QUIDDMock",
  "sourceName": "contracts/mocks/token/ERC20/QUIDDMock.sol",
  "abi": [
    {
      "inputs": [
        {
          "internalType": "address[]",
          "name": "recipients",
          "type": "address[]"
        },
        {
          "internalType": "uint256[]",
          "name": "values",
          "type": "uint256[]"
        },
        {
          "internalType": "contract IForwarderRegistry",
          "name": "forwarderRegistry",
          "type": "address"
        },
        {
          "internalType": "address",
          "name": "universalForwarder",
          "type": "address"
        }
      ],
      "stateMutability": "nonpayable",
      "type": "constructor"
    },
    {
      "anonymous": false,
      "inputs": [
        {
          "indexed": true,
          "internalType": "address",
          "name": "_owner",
          "type": "address"
        },
        {
          "indexed": true,
          "internalType": "address",
          "name": "_spender",
          "type": "address"
        },
        {
          "indexed": false,
          "internalType": "uint256",
          "name": "_value",
          "type": "uint256"
        }
      ],
      "name": "Approval",
      "type": "event"
    },
    {
      "anonymous": false,
      "inputs": [
        {
          "indexed": true,
          "internalType": "address",
          "name": "previousOwner",
          "type": "address"
        },
        {
          "indexed": true,
          "internalType": "address",
          "name": "newOwner",
          "type": "address"
        }
      ],
      "name": "OwnershipTransferred",
      "type": "event"
    },
    {
      "anonymous": false,
      "inputs": [
        {
          "indexed": true,
          "internalType": "address",
          "name": "_from",
          "type": "address"
        },
        {
          "indexed": true,
          "internalType": "address",
          "name": "_to",
          "type": "address"
        },
        {
          "indexed": false,
          "internalType": "uint256",
          "name": "_value",
          "type": "uint256"
        }
      ],
      "name": "Transfer",
      "type": "event"
    },
    {
      "inputs": [],
      "name": "DOMAIN_SEPARATOR",
      "outputs": [
        {
          "internalType": "bytes32",
          "name": "",
          "type": "bytes32"
        }
      ],
      "stateMutability": "view",
      "type": "function"
    },
    {
      "inputs": [
        {
          "internalType": "address",
          "name": "owner",
          "type": "address"
        },
        {
          "internalType": "address",
          "name": "spender",
          "type": "address"
        }
      ],
      "name": "allowance",
      "outputs": [
        {
          "internalType": "uint256",
          "name": "",
          "type": "uint256"
        }
      ],
      "stateMutability": "view",
      "type": "function"
    },
    {
      "inputs": [
        {
          "internalType": "address",
          "name": "spender",
          "type": "address"
        },
        {
          "internalType": "uint256",
          "name": "value",
          "type": "uint256"
        }
      ],
      "name": "approve",
      "outputs": [
        {
          "internalType": "bool",
          "name": "",
          "type": "bool"
        }
      ],
      "stateMutability": "nonpayable",
      "type": "function"
    },
    {
      "inputs": [
        {
          "internalType": "address",
          "name": "account",
          "type": "address"
        }
      ],
      "name": "balanceOf",
      "outputs": [
        {
          "internalType": "uint256",
          "name": "",
          "type": "uint256"
        }
      ],
      "stateMutability": "view",
      "type": "function"
    },
    {
      "inputs": [
        {
          "internalType": "address[]",
          "name": "recipients",
          "type": "address[]"
        },
        {
          "internalType": "uint256[]",
          "name": "values",
          "type": "uint256[]"
        }
      ],
      "name": "batchTransfer",
      "outputs": [
        {
          "internalType": "bool",
          "name": "",
          "type": "bool"
        }
      ],
      "stateMutability": "nonpayable",
      "type": "function"
    },
    {
      "inputs": [
        {
          "internalType": "address",
          "name": "from",
          "type": "address"
        },
        {
          "internalType": "address[]",
          "name": "recipients",
          "type": "address[]"
        },
        {
          "internalType": "uint256[]",
          "name": "values",
          "type": "uint256[]"
        }
      ],
      "name": "batchTransferFrom",
      "outputs": [
        {
          "internalType": "bool",
          "name": "",
          "type": "bool"
        }
      ],
      "stateMutability": "nonpayable",
      "type": "function"
    },
    {
      "inputs": [],
      "name": "decimals",
      "outputs": [
        {
          "internalType": "uint8",
          "name": "",
          "type": "uint8"
        }
      ],
      "stateMutability": "view",
      "type": "function"
    },
    {
      "inputs": [
        {
          "internalType": "address",
          "name": "spender",
          "type": "address"
        },
        {
          "internalType": "uint256",
          "name": "subtractedValue",
          "type": "uint256"
        }
      ],
      "name": "decreaseAllowance",
      "outputs": [
        {
          "internalType": "bool",
          "name": "",
          "type": "bool"
        }
      ],
      "stateMutability": "nonpayable",
      "type": "function"
    },
    {
      "inputs": [],
      "name": "deploymentChainId",
      "outputs": [
        {
          "internalType": "uint256",
          "name": "",
          "type": "uint256"
        }
      ],
      "stateMutability": "view",
      "type": "function"
    },
    {
      "inputs": [
        {
          "internalType": "address",
          "name": "spender",
          "type": "address"
        },
        {
          "internalType": "uint256",
          "name": "addedValue",
          "type": "uint256"
        }
      ],
      "name": "increaseAllowance",
      "outputs": [
        {
          "internalType": "bool",
          "name": "",
          "type": "bool"
        }
      ],
      "stateMutability": "nonpayable",
      "type": "function"
    },
    {
      "inputs": [
        {
          "internalType": "address",
          "name": "forwarder",
          "type": "address"
        }
      ],
      "name": "isTrustedForwarder",
      "outputs": [
        {
          "internalType": "bool",
          "name": "",
          "type": "bool"
        }
      ],
      "stateMutability": "view",
      "type": "function"
    },
    {
      "inputs": [
        {
          "internalType": "address",
          "name": "to",
          "type": "address"
        },
        {
          "internalType": "uint256",
          "name": "value",
          "type": "uint256"
        }
      ],
      "name": "mint",
      "outputs": [],
      "stateMutability": "nonpayable",
      "type": "function"
    },
    {
      "inputs": [],
      "name": "msgData",
      "outputs": [
        {
          "internalType": "bytes",
          "name": "ret",
          "type": "bytes"
        }
      ],
      "stateMutability": "view",
      "type": "function"
    },
    {
      "inputs": [],
      "name": "name",
      "outputs": [
        {
          "internalType": "string",
          "name": "",
          "type": "string"
        }
      ],
      "stateMutability": "view",
      "type": "function"
    },
    {
      "inputs": [
        {
          "internalType": "address",
          "name": "",
          "type": "address"
        }
      ],
      "name": "nonces",
      "outputs": [
        {
          "internalType": "uint256",
          "name": "",
          "type": "uint256"
        }
      ],
      "stateMutability": "view",
      "type": "function"
    },
    {
      "inputs": [],
      "name": "owner",
      "outputs": [
        {
          "internalType": "address",
          "name": "",
          "type": "address"
        }
      ],
      "stateMutability": "view",
      "type": "function"
    },
    {
      "inputs": [
        {
          "internalType": "address",
          "name": "owner",
          "type": "address"
        },
        {
          "internalType": "address",
          "name": "spender",
          "type": "address"
        },
        {
          "internalType": "uint256",
          "name": "value",
          "type": "uint256"
        },
        {
          "internalType": "uint256",
          "name": "deadline",
          "type": "uint256"
        },
        {
          "internalType": "uint8",
          "name": "v",
          "type": "uint8"
        },
        {
          "internalType": "bytes32",
          "name": "r",
          "type": "bytes32"
        },
        {
          "internalType": "bytes32",
          "name": "s",
          "type": "bytes32"
        }
      ],
      "name": "permit",
      "outputs": [],
      "stateMutability": "nonpayable",
      "type": "function"
    },
    {
      "inputs": [
        {
          "internalType": "address[]",
          "name": "accounts",
          "type": "address[]"
        },
        {
          "internalType": "address[]",
          "name": "tokens",
          "type": "address[]"
        },
        {
          "internalType": "uint256[]",
          "name": "amounts",
          "type": "uint256[]"
        }
      ],
      "name": "recoverERC20s",
      "outputs": [],
      "stateMutability": "nonpayable",
      "type": "function"
    },
    {
      "inputs": [
        {
          "internalType": "address[]",
          "name": "accounts",
          "type": "address[]"
        },
        {
          "internalType": "address[]",
          "name": "contracts",
          "type": "address[]"
        },
        {
          "internalType": "uint256[]",
          "name": "tokenIds",
          "type": "uint256[]"
        }
      ],
      "name": "recoverERC721s",
      "outputs": [],
      "stateMutability": "nonpayable",
      "type": "function"
    },
    {
      "inputs": [
        {
          "internalType": "address",
          "name": "to",
          "type": "address"
        },
        {
          "internalType": "uint256",
          "name": "amount",
          "type": "uint256"
        },
        {
          "internalType": "bytes",
          "name": "data",
          "type": "bytes"
        }
      ],
      "name": "safeTransfer",
      "outputs": [
        {
          "internalType": "bool",
          "name": "",
          "type": "bool"
        }
      ],
      "stateMutability": "nonpayable",
      "type": "function"
    },
    {
      "inputs": [
        {
          "internalType": "address",
          "name": "from",
          "type": "address"
        },
        {
          "internalType": "address",
          "name": "to",
          "type": "address"
        },
        {
          "internalType": "uint256",
          "name": "amount",
          "type": "uint256"
        },
        {
          "internalType": "bytes",
          "name": "data",
          "type": "bytes"
        }
      ],
      "name": "safeTransferFrom",
      "outputs": [
        {
          "internalType": "bool",
          "name": "",
          "type": "bool"
        }
      ],
      "stateMutability": "nonpayable",
      "type": "function"
    },
    {
      "inputs": [
        {
          "internalType": "string",
          "name": "tokenURI_",
          "type": "string"
        }
      ],
      "name": "setTokenURI",
      "outputs": [],
      "stateMutability": "nonpayable",
      "type": "function"
    },
    {
      "inputs": [
        {
          "internalType": "bytes4",
          "name": "interfaceId",
          "type": "bytes4"
        }
      ],
      "name": "supportsInterface",
      "outputs": [
        {
          "internalType": "bool",
          "name": "",
          "type": "bool"
        }
      ],
      "stateMutability": "view",
      "type": "function"
    },
    {
      "inputs": [],
      "name": "symbol",
      "outputs": [
        {
          "internalType": "string",
          "name": "",
          "type": "string"
        }
      ],
      "stateMutability": "view",
      "type": "function"
    },
    {
      "inputs": [],
      "name": "tokenURI",
      "outputs": [
        {
          "internalType": "string",
          "name": "",
          "type": "string"
        }
      ],
      "stateMutability": "view",
      "type": "function"
    },
    {
      "inputs": [],
      "name": "totalSupply",
      "outputs": [
        {
          "internalType": "uint256",
          "name": "",
          "type": "uint256"
        }
      ],
      "stateMutability": "view",
      "type": "function"
    },
    {
      "inputs": [
        {
          "internalType": "address",
          "name": "to",
          "type": "address"
        },
        {
          "internalType": "uint256",
          "name": "value",
          "type": "uint256"
        }
      ],
      "name": "transfer",
      "outputs": [
        {
          "internalType": "bool",
          "name": "",
          "type": "bool"
        }
      ],
      "stateMutability": "nonpayable",
      "type": "function"
    },
    {
      "inputs": [
        {
          "internalType": "address",
          "name": "from",
          "type": "address"
        },
        {
          "internalType": "address",
          "name": "to",
          "type": "address"
        },
        {
          "internalType": "uint256",
          "name": "value",
          "type": "uint256"
        }
      ],
      "name": "transferFrom",
      "outputs": [
        {
          "internalType": "bool",
          "name": "",
          "type": "bool"
        }
      ],
      "stateMutability": "nonpayable",
      "type": "function"
    },
    {
      "inputs": [
        {
          "internalType": "address",
          "name": "newOwner",
          "type": "address"
        }
      ],
      "name": "transferOwnership",
      "outputs": [],
      "stateMutability": "nonpayable",
      "type": "function"
    }
  ],
  "bytecode": "0x6101206040523480156200001257600080fd5b50604051620033f1380380620033f1833981810160405260808110156200003857600080fd5b81019080805160405193929190846401000000008211156200005957600080fd5b9083019060208201858111156200006f57600080fd5b82518660208202830111640100000000821117156200008d57600080fd5b82525081516020918201928201910280838360005b83811015620000bc578181015183820152602001620000a2565b5050505090500160405260200180516040519392919084640100000000821115620000e657600080fd5b908301906020820185811115620000fc57600080fd5b82518660208202830111640100000000821117156200011a57600080fd5b82525081516020918201928201910280838360005b83811015620001495781810151838201526020016200012f565b50505050919091016040818152602084810151948201518284018352600580855264145552511160da1b83860181815285518087018752928352828501919091528451938401909452600083528451969850909650899589955088948894339487948794909260129291620001c19160019162000577565b508251620001d790600290602086019062000577565b507fff0000000000000000000000000000000000000000000000000000000000000060f883901b1660c05280516200021790600390602084019062000577565b504660808190526200022a8186620002b2565b60a0525050505050606090811b6001600160601b03199081166101005291901b1660e052600780546001600160a01b0319166001600160a01b0383169081179091556040516000907f8be0079c531659141344cd1fd0a4f28419497f9722a3daafe3b4186f6b6457e0908290a350620002a484846200033c565b505050505050505062000623565b8051602091820120604080517f8b73c3c69bb8fe3d512ecc4cf759cc79239f7b179b0ffacaa9a75d522b39400f81850152808201929092527fc89efdaa54c0f20c7adf612882df0950f5a951637e0307cdcb4c672f298b8bc6606083015260808201939093523060a0808301919091528351808303909101815260c0909101909252815191012090565b81518151811462000394576040805162461bcd60e51b815260206004820152601a60248201527f45524332303a20696e636f6e73697374656e7420617272617973000000000000604482015290519081900360640190fd5b6000805b82811462000509576000858281518110620003af57fe5b6020026020010151905060006001600160a01b0316816001600160a01b0316141562000422576040805162461bcd60e51b815260206004820152601360248201527f45524332303a207a65726f206164647265737300000000000000000000000000604482015290519081900360640190fd5b60008583815181106200043157fe5b6020026020010151905080600014620004bd578381018481116200049c576040805162461bcd60e51b815260206004820152601660248201527f45524332303a2076616c756573206f766572666c6f7700000000000000000000604482015290519081900360640190fd5b6001600160a01b038316600090815260046020526040902080548301905593505b6040805182815290516001600160a01b038416916000917fddf252ad1be2c89b69c2b068fc378daa952ba7f163c4a11628f55a4df523b3ef9181900360200190a3505060010162000398565b50801562000571576006548181018181116200056c576040805162461bcd60e51b815260206004820152601660248201527f45524332303a20737570706c79206f766572666c6f7700000000000000000000604482015290519081900360640190fd5b600655505b50505050565b828054600181600116156101000203166002900490600052602060002090601f016020900481019282620005af5760008555620005fa565b82601f10620005ca57805160ff1916838001178555620005fa565b82800160010185558215620005fa579182015b82811115620005fa578251825591602001919060010190620005dd565b50620006089291506200060c565b5090565b5b808211156200060857600081556001016200060d565b60805160a05160c05160f81c60e05160601c6101005160601c612d626200068f6000398061131c528061279e5280612af3525080611357528061276352806127f65280612ac95280612b54525080610cf7525080610de1525080610d1e5280611ba95250612d626000f3fe608060405234801561001057600080fd5b50600436106101cf5760003560e01c80637ecebe0011610104578063c3666c36116100a2578063dd62ed3e11610071578063dd62ed3e14610933578063e0df5b6f14610961578063eb795549146109d1578063f2fde38b14610a56576101cf565b8063c3666c36146107be578063c4c2bfdc146108d2578063cd0d0096146108da578063d505accf146108e2576101cf565b806395d89b41116100de57806395d89b41146106ce578063a457c2d7146106d6578063a9059cbb14610702578063b88d4fde1461072e576101cf565b80637ecebe00146105c257806388d695b2146105e85780638da5cb5b146106aa576101cf565b806339509351116101715780634885b2541161014b5780634885b25414610390578063572b6c051461046257806370a082311461048857806373c8a958146104ae576101cf565b8063395093511461032e5780633c130d901461035a57806340c10f1914610362576101cf565b806318160ddd116101ad57806318160ddd146102b857806323b872dd146102d2578063313ce567146103085780633644e51514610326576101cf565b806301ffc9a7146101d457806306fdde031461020f578063095ea7b31461028c575b600080fd5b6101fb600480360360208110156101ea57600080fd5b50356001600160e01b031916610a7c565b604080519115158252519081900360200190f35b610217610c1d565b6040805160208082528351818301528351919283929083019185019080838360005b83811015610251578181015183820152602001610239565b50505050905090810190601f16801561027e5780820380516001836020036101000a031916815260200191505b509250505060405180910390f35b6101fb600480360360408110156102a257600080fd5b506001600160a01b038135169060200135610cb3565b6102c0610cd0565b60408051918252519081900360200190f35b6101fb600480360360608110156102e857600080fd5b506001600160a01b03813581169160208101359091169060400135610cd6565b610310610cf5565b6040805160ff9092168252519081900360200190f35b6102c0610d19565b6101fb6004803603604081101561034457600080fd5b506001600160a01b038135169060200135610e07565b610217610f75565b61038e6004803603604081101561037857600080fd5b506001600160a01b038135169060200135610fd6565b005b6101fb600480360360608110156103a657600080fd5b6001600160a01b0382351691908101906040810160208201356401000000008111156103d157600080fd5b8201836020820111156103e357600080fd5b8035906020019184602083028401116401000000008311171561040557600080fd5b91939092909160208101903564010000000081111561042357600080fd5b82018360208201111561043557600080fd5b8035906020019184602083028401116401000000008311171561045757600080fd5b509092509050610fe4565b6101fb6004803603602081101561047857600080fd5b50356001600160a01b0316611318565b6102c06004803603602081101561049e57600080fd5b50356001600160a01b0316611391565b61038e600480360360608110156104c457600080fd5b8101906020810181356401000000008111156104df57600080fd5b8201836020820111156104f157600080fd5b8035906020019184602083028401116401000000008311171561051357600080fd5b91939092909160208101903564010000000081111561053157600080fd5b82018360208201111561054357600080fd5b8035906020019184602083028401116401000000008311171561056557600080fd5b91939092909160208101903564010000000081111561058357600080fd5b82018360208201111561059557600080fd5b803590602001918460208302840111640100000000831117156105b757600080fd5b5090925090506113ac565b6102c0600480360360208110156105d857600080fd5b50356001600160a01b031661149e565b6101fb600480360360408110156105fe57600080fd5b81019060208101813564010000000081111561061957600080fd5b82018360208201111561062b57600080fd5b8035906020019184602083028401116401000000008311171561064d57600080fd5b91939092909160208101903564010000000081111561066b57600080fd5b82018360208201111561067d57600080fd5b8035906020019184602083028401116401000000008311171561069f57600080fd5b5090925090506114b0565b6106b26117bf565b604080516001600160a01b039092168252519081900360200190f35b6102176117ce565b6101fb600480360360408110156106ec57600080fd5b506001600160a01b03813516906020013561182c565b6101fb6004803603604081101561071857600080fd5b506001600160a01b03813516906020013561189b565b6101fb6004803603608081101561074457600080fd5b6001600160a01b0382358116926020810135909116916040820135919081019060808101606082013564010000000081111561077f57600080fd5b82018360208201111561079157600080fd5b803590602001918460018302840111640100000000831117156107b357600080fd5b5090925090506118af565b61038e600480360360608110156107d457600080fd5b8101906020810181356401000000008111156107ef57600080fd5b82018360208201111561080157600080fd5b8035906020019184602083028401116401000000008311171561082357600080fd5b91939092909160208101903564010000000081111561084157600080fd5b82018360208201111561085357600080fd5b8035906020019184602083028401116401000000008311171561087557600080fd5b91939092909160208101903564010000000081111561089357600080fd5b8201836020820111156108a557600080fd5b803590602001918460208302840111640100000000831117156108c757600080fd5b509092509050611a50565b610217611b98565b6102c0611ba7565b61038e600480360360e08110156108f857600080fd5b506001600160a01b03813581169160208101359091169060408101359060608101359060ff6080820135169060a08101359060c00135611bcb565b6102c06004803603604081101561094957600080fd5b506001600160a01b0381358116916020013516611e4a565b61038e6004803603602081101561097757600080fd5b81019060208101813564010000000081111561099257600080fd5b8201836020820111156109a457600080fd5b803590602001918460018302840111640100000000831117156109c657600080fd5b509092509050611e75565b6101fb600480360360608110156109e757600080fd5b6001600160a01b0382351691602081013591810190606081016040820135640100000000811115610a1757600080fd5b820183602082011115610a2957600080fd5b80359060200191846001830284011164010000000083111715610a4b57600080fd5b509092509050611e91565b61038e60048036036020811015610a6c57600080fd5b50356001600160a01b0316612030565b60006001600160e01b031982167f01ffc9a7000000000000000000000000000000000000000000000000000000001480610adf57506001600160e01b031982167f36372b0700000000000000000000000000000000000000000000000000000000145b80610b1357506001600160e01b031982167fa219a02500000000000000000000000000000000000000000000000000000000145b80610b4757506001600160e01b031982167f3c130d9000000000000000000000000000000000000000000000000000000000145b80610b7b57506001600160e01b031982167f9d07518600000000000000000000000000000000000000000000000000000000145b80610baf57506001600160e01b031982167fc05327e600000000000000000000000000000000000000000000000000000000145b80610be357506001600160e01b031982167f53f41a9700000000000000000000000000000000000000000000000000000000145b80610c1757506001600160e01b031982167f9d8ff7da00000000000000000000000000000000000000000000000000000000145b92915050565b60018054604080516020601f60026000196101008789161502019095169490940493840181900481028201810190925282815260609390929091830182828015610ca85780601f10610c7d57610100808354040283529160200191610ca8565b820191906000526020600020905b815481529060010190602001808311610c8b57829003601f168201915b505050505090505b90565b6000610cc7610cc06120a3565b84846120ad565b50600192915050565b60065490565b6000610ceb610ce36120a3565b85858561216a565b5060019392505050565b7f000000000000000000000000000000000000000000000000000000000000000090565b6000467f00000000000000000000000000000000000000000000000000000000000000008114610ddf5760018054604080516020600284861615610100026000190190941693909304601f8101849004840282018401909252818152610dda93859391929091830182828015610dd05780601f10610da557610100808354040283529160200191610dd0565b820191906000526020600020905b815481529060010190602001808311610db357829003601f168201915b505050505061219f565b610e01565b7f00000000000000000000000000000000000000000000000000000000000000005b91505090565b60006001600160a01b038316610e64576040805162461bcd60e51b815260206004820152601b60248201527f45524332303a207a65726f2061646472657373207370656e6465720000000000604482015290519081900360640190fd5b6000610e6e6120a3565b6001600160a01b038082166000908152600560209081526040808320938916835292905220549091508315610f1f57808401818111610ef4576040805162461bcd60e51b815260206004820152601960248201527f45524332303a20616c6c6f77616e6365206f766572666c6f7700000000000000604482015290519081900360640190fd5b6001600160a01b038084166000908152600560209081526040808320938a1683529290522081905590505b846001600160a01b0316826001600160a01b03167f8c5be1e5ebec7d5bd14f71427d1e84f3dd0314c0f7b2291e5b200ac8c7c3b925836040518082815260200191505060405180910390a3506001949350505050565b60038054604080516020601f6002600019610100600188161502019095169490940493840181900481028201810190925282815260609390929091830182828015610ca85780601f10610c7d57610100808354040283529160200191610ca8565b610fe08282612229565b5050565b60008382811461103b576040805162461bcd60e51b815260206004820152601a60248201527f45524332303a20696e636f6e73697374656e7420617272617973000000000000604482015290519081900360640190fd5b6001600160a01b0387166000908152600460205260408120549080805b84811461124d5760008a8a8381811061106d57fe5b905060200201356001600160a01b0316905060006001600160a01b0316816001600160a01b031614156110e7576040805162461bcd60e51b815260206004820152601660248201527f45524332303a20746f207a65726f206164647265737300000000000000000000604482015290519081900360640190fd5b60008989848181106110f557fe5b905060200201359050806000146111f85784810185811161115d576040805162461bcd60e51b815260206004820152601660248201527f45524332303a2076616c756573206f766572666c6f7700000000000000000000604482015290519081900360640190fd5b809550826001600160a01b03168e6001600160a01b03161461119c576001600160a01b03831660009081526004602052604090208054830190556111f6565b868211156111f1576040805162461bcd60e51b815260206004820152601b60248201527f45524332303a20696e73756666696369656e742062616c616e63650000000000604482015290519081900360640190fd5b938101935b505b816001600160a01b03168d6001600160a01b03167fddf252ad1be2c89b69c2b068fc378daa952ba7f163c4a11628f55a4df523b3ef836040518082815260200191505060405180910390a35050600101611058565b50811580159061125d5750808214155b156112d7578183038381106112b9576040805162461bcd60e51b815260206004820152601b60248201527f45524332303a20696e73756666696369656e742062616c616e63650000000000604482015290519081900360640190fd5b6001600160a01b038b16600090815260046020526040902090820190555b60006112e16120a3565b9050806001600160a01b03168b6001600160a01b031614611307576113078b828561234c565b5060019a9950505050505050505050565b60007f00000000000000000000000000000000000000000000000000000000000000006001600160a01b0316826001600160a01b03161480610c1757507f00000000000000000000000000000000000000000000000000000000000000006001600160a01b0316826001600160a01b0316149050919050565b6001600160a01b031660009081526004602052604090205490565b6113bc6113b76120a3565b61245b565b8483811480156113cb57508082145b61141c576040805162461bcd60e51b815260206004820152601a60248201527f5265636f763a20696e636f6e73697374656e7420617272617973000000000000604482015290519081900360640190fd5b60005b8181146114945761148c88888381811061143557fe5b905060200201356001600160a01b031685858481811061145157fe5b9050602002013588888581811061146457fe5b905060200201356001600160a01b03166001600160a01b03166125229092919063ffffffff16565b60010161141f565b5050505050505050565b60006020819052908152604090205481565b600083828114611507576040805162461bcd60e51b815260206004820152601a60248201527f45524332303a20696e636f6e73697374656e7420617272617973000000000000604482015290519081900360640190fd5b60006115116120a3565b6001600160a01b03811660009081526004602052604081205491925080805b8581146117255760008b8b8381811061154557fe5b905060200201356001600160a01b0316905060006001600160a01b0316816001600160a01b031614156115bf576040805162461bcd60e51b815260206004820152601660248201527f45524332303a20746f207a65726f206164647265737300000000000000000000604482015290519081900360640190fd5b60008a8a848181106115cd57fe5b905060200201359050806000146116d057848101858111611635576040805162461bcd60e51b815260206004820152601660248201527f45524332303a2076616c756573206f766572666c6f7700000000000000000000604482015290519081900360640190fd5b809550826001600160a01b0316886001600160a01b031614611674576001600160a01b03831660009081526004602052604090208054830190556116ce565b868211156116c9576040805162461bcd60e51b815260206004820152601b60248201527f45524332303a20696e73756666696369656e742062616c616e63650000000000604482015290519081900360640190fd5b938101935b505b816001600160a01b0316876001600160a01b03167fddf252ad1be2c89b69c2b068fc378daa952ba7f163c4a11628f55a4df523b3ef836040518082815260200191505060405180910390a35050600101611530565b5081158015906117355750808214155b156117af57818303838110611791576040805162461bcd60e51b815260206004820152601b60248201527f45524332303a20696e73756666696369656e742062616c616e63650000000000604482015290519081900360640190fd5b6001600160a01b038516600090815260046020526040902090820190555b5060019998505050505050505050565b6007546001600160a01b031690565b60028054604080516020601f6000196101006001871615020190941685900493840181900481028201810190925282815260609390929091830182828015610ca85780601f10610c7d57610100808354040283529160200191610ca8565b60006001600160a01b038316611889576040805162461bcd60e51b815260206004820152601b60248201527f45524332303a207a65726f2061646472657373207370656e6465720000000000604482015290519081900360640190fd5b610cc76118946120a3565b848461234c565b6000610cc76118a86120a3565b84846125a2565b6000806118ba6120a3565b90506118c88188888861216a565b6118da866001600160a01b0316612709565b15611a43577f4fc35859000000000000000000000000000000000000000000000000000000007bffffffffffffffffffffffffffffffffffffffffffffffffffffffff1916866001600160a01b0316634fc35859838a8989896040518663ffffffff1660e01b815260040180866001600160a01b03168152602001856001600160a01b03168152602001848152602001806020018281038252848482818152602001925080828437600081840152601f19601f8201169050808301925050509650505050505050602060405180830381600087803b1580156119bb57600080fd5b505af11580156119cf573d6000803e3d6000fd5b505050506040513d60208110156119e557600080fd5b50516001600160e01b03191614611a43576040805162461bcd60e51b815260206004820152601760248201527f45524332303a207472616e736665722072656675736564000000000000000000604482015290519081900360640190fd5b5060019695505050505050565b611a5b6113b76120a3565b848381148015611a6a57508082145b611abb576040805162461bcd60e51b815260206004820152601a60248201527f5265636f763a20696e636f6e73697374656e7420617272617973000000000000604482015290519081900360640190fd5b60005b81811461149457858582818110611ad157fe5b905060200201356001600160a01b03166001600160a01b03166323b872dd308a8a85818110611afc57fe5b905060200201356001600160a01b0316878786818110611b1857fe5b905060200201356040518463ffffffff1660e01b815260040180846001600160a01b03168152602001836001600160a01b031681526020018281526020019350505050600060405180830381600087803b158015611b7557600080fd5b505af1158015611b89573d6000803e3d6000fd5b50505050806001019050611abe565b6060611ba261270f565b905090565b7f000000000000000000000000000000000000000000000000000000000000000081565b6001600160a01b038716611c26576040805162461bcd60e51b815260206004820152601960248201527f45524332303a207a65726f2061646472657373206f776e657200000000000000604482015290519081900360640190fd5b83421115611c7b576040805162461bcd60e51b815260206004820152601560248201527f45524332303a2065787069726564207065726d69740000000000000000000000604482015290519081900360640190fd5b6001600160a01b0380881660008181526020818152604080832080546001810190915581517f6e71edae12b1b97f4d1f60370fef10105fa2faae0126114a169c64845d6126c98185015280830195909552948b166060850152608084018a905260a084019490945260c08084018990528451808503909101815260e09093019093528151919092012090611d0d610d19565b8260405160200180807f190100000000000000000000000000000000000000000000000000000000000081525060020183815260200182815260200192505050604051602081830303815290604052805190602001209050600060018287878760405160008152602001604052604051808581526020018460ff1681526020018381526020018281526020019450505050506020604051602081039080840390855afa158015611dc1573d6000803e3d6000fd5b505050602060405103519050896001600160a01b0316816001600160a01b031614611e33576040805162461bcd60e51b815260206004820152601560248201527f45524332303a20696e76616c6964207065726d69740000000000000000000000604482015290519081900360640190fd5b611e3e8a8a8a6120ad565b50505050505050505050565b6001600160a01b03918216600090815260056020908152604080832093909416825291909152205490565b611e806113b76120a3565b611e8c60038383612c45565b505050565b600080611e9c6120a3565b9050611ea98187876125a2565b611ebb866001600160a01b0316612709565b15612024577f4fc35859000000000000000000000000000000000000000000000000000000007bffffffffffffffffffffffffffffffffffffffffffffffffffffffff1916866001600160a01b0316634fc3585983848989896040518663ffffffff1660e01b815260040180866001600160a01b03168152602001856001600160a01b03168152602001848152602001806020018281038252848482818152602001925080828437600081840152601f19601f8201169050808301925050509650505050505050602060405180830381600087803b158015611f9c57600080fd5b505af1158015611fb0573d6000803e3d6000fd5b505050506040513d6020811015611fc657600080fd5b50516001600160e01b03191614612024576040805162461bcd60e51b815260206004820152601760248201527f45524332303a207472616e736665722072656675736564000000000000000000604482015290519081900360640190fd5b50600195945050505050565b61203b6113b76120a3565b600780547fffffffffffffffffffffffff0000000000000000000000000000000000000000166001600160a01b0383811691821792839055604051919216907f8be0079c531659141344cd1fd0a4f28419497f9722a3daafe3b4186f6b6457e090600090a350565b6000611ba2612753565b6001600160a01b038216612108576040805162461bcd60e51b815260206004820152601b60248201527f45524332303a207a65726f2061646472657373207370656e6465720000000000604482015290519081900360640190fd5b6001600160a01b03808416600081815260056020908152604080832094871680845294825291829020859055815185815291517f8c5be1e5ebec7d5bd14f71427d1e84f3dd0314c0f7b2291e5b200ac8c7c3b9259281900390910190a3505050565b6121758383836125a2565b836001600160a01b0316836001600160a01b0316146121995761219983858361234c565b50505050565b8051602091820120604080517f8b73c3c69bb8fe3d512ecc4cf759cc79239f7b179b0ffacaa9a75d522b39400f81850152808201929092527fc89efdaa54c0f20c7adf612882df0950f5a951637e0307cdcb4c672f298b8bc6606083015260808201939093523060a0808301919091528351808303909101815260c0909101909252815191012090565b6001600160a01b038216612284576040805162461bcd60e51b815260206004820152601360248201527f45524332303a207a65726f206164647265737300000000000000000000000000604482015290519081900360640190fd5b6006548115612306578082018181116122e4576040805162461bcd60e51b815260206004820152601660248201527f45524332303a20737570706c79206f766572666c6f7700000000000000000000604482015290519081900360640190fd5b6006556001600160a01b03831660009081526004602052604090208054830190555b6040805183815290516001600160a01b038516916000917fddf252ad1be2c89b69c2b068fc378daa952ba7f163c4a11628f55a4df523b3ef9181900360200190a3505050565b6001600160a01b03808416600090815260056020908152604080832093861683529290522054600019811480159061238357508115155b1561240a578181038181106123df576040805162461bcd60e51b815260206004820152601d60248201527f45524332303a20696e73756666696369656e7420616c6c6f77616e6365000000604482015290519081900360640190fd5b6001600160a01b03808616600090815260056020908152604080832093881683529290522081905590505b826001600160a01b0316846001600160a01b03167f8c5be1e5ebec7d5bd14f71427d1e84f3dd0314c0f7b2291e5b200ac8c7c3b925836040518082815260200191505060405180910390a350505050565b306001600160a01b0316638da5cb5b6040518163ffffffff1660e01b815260040160206040518083038186803b15801561249457600080fd5b505afa1580156124a8573d6000803e3d6000fd5b505050506040513d60208110156124be57600080fd5b50516001600160a01b0382811691161461251f576040805162461bcd60e51b815260206004820152601660248201527f4f776e61626c653a206e6f7420746865206f776e657200000000000000000000604482015290519081900360640190fd5b50565b604080516001600160a01b038416602482015260448082018490528251808303909101815260649091019091526020810180517bffffffffffffffffffffffffffffffffffffffffffffffffffffffff167fa9059cbb00000000000000000000000000000000000000000000000000000000179052611e8c9084906128b3565b6001600160a01b0382166125fd576040805162461bcd60e51b815260206004820152601660248201527f45524332303a20746f207a65726f206164647265737300000000000000000000604482015290519081900360640190fd5b80156126b9576001600160a01b038316600090815260046020526040902054818103818110612673576040805162461bcd60e51b815260206004820152601b60248201527f45524332303a20696e73756666696369656e742062616c616e63650000000000604482015290519081900360640190fd5b836001600160a01b0316856001600160a01b0316146126b6576001600160a01b038086166000908152600460205260408082208490559186168152208054840190555b50505b816001600160a01b0316836001600160a01b03167fddf252ad1be2c89b69c2b068fc378daa952ba7f163c4a11628f55a4df523b3ef836040518082815260200191505060405180910390a3505050565b3b151590565b6060612719612abb565b8080601f01602080910402602001604051908101604052809392919081815260200183838082843760009201919091525092935050505090565b6000338161275f612c1e565b90507f00000000000000000000000000000000000000000000000000000000000000006001600160a01b0316826001600160a01b031614806127d257507f00000000000000000000000000000000000000000000000000000000000000006001600160a01b0316826001600160a01b0316145b156127e0579150610cb09050565b6001600160a01b038216321480159061289f57507f00000000000000000000000000000000000000000000000000000000000000006001600160a01b031663e60125d682846040518363ffffffff1660e01b815260040180836001600160a01b03168152602001826001600160a01b031681526020019250505060206040518083038186803b15801561287257600080fd5b505afa158015612886573d6000803e3d6000fd5b505050506040513d602081101561289c57600080fd5b50515b156128ad579150610cb09050565b50905090565b816128c66001600160a01b038216612709565b612917576040805162461bcd60e51b815260206004820152601a60248201527f4552433230577261707065723a206e6f6e2d636f6e7472616374000000000000604482015290519081900360640190fd5b600080826001600160a01b0316846040518082805190602001908083835b6020831061297257805182527fffffffffffffffffffffffffffffffffffffffffffffffffffffffffffffffe09092019160209182019101612935565b6001836020036101000a0380198251168184511680821785525050505050509050019150506000604051808303816000865af19150503d80600081146129d4576040519150601f19603f3d011682016040523d82523d6000602084013e6129d9565b606091505b50915091508115612a5857805115612a5357808060200190516020811015612a0057600080fd5b5051612a53576040805162461bcd60e51b815260206004820152601e60248201527f4552433230577261707065723a206f7065726174696f6e206661696c65640000604482015290519081900360640190fd5b612ab4565b8051612aab576040805162461bcd60e51b815260206004820152601e60248201527f4552433230577261707065723a206f7065726174696f6e206661696c65640000604482015290519081900360640190fd5b80518082602001fd5b5050505050565b366000336001600160a01b037f000000000000000000000000000000000000000000000000000000000000000016811480612b2757507f00000000000000000000000000000000000000000000000000000000000000006001600160a01b0316816001600160a01b0316145b15612b3e57612b34612c2a565b9250925050612c1a565b6001600160a01b0381163214801590612c0457507f00000000000000000000000000000000000000000000000000000000000000006001600160a01b031663e60125d6612b89612c1e565b836040518363ffffffff1660e01b815260040180836001600160a01b03168152602001826001600160a01b031681526020019250505060206040518083038186803b158015612bd757600080fd5b505afa158015612beb573d6000803e3d6000fd5b505050506040513d6020811015612c0157600080fd5b50515b15612c1157612b34612c2a565b60003692509250505b9091565b60131936013560601c90565b366000612c3d6013198301828481612d04565b915091509091565b828054600181600116156101000203166002900490600052602060002090601f016020900481019282612c7b5760008555612cdf565b82601f10612cb2578280017fffffffffffffffffffffffffffffffffffffffffffffffffffffffffffffff00823516178555612cdf565b82800160010185558215612cdf579182015b82811115612cdf578235825591602001919060010190612cc4565b50612ceb929150612cef565b5090565b5b80821115612ceb5760008155600101612cf0565b60008085851115612d13578182fd5b83861115612d1f578182fd5b505082019391909203915056fea2646970667358221220795f97e27b2c45176d4518e2121c751794f76646f15e06bccbc62ea5293b54a864736f6c63430007060033",
  "linkReferences": {},
  "deployedLinkReferences": {}
}