{
  "_format": "hh-sol-artifact-1",
  "contractName": "QUIDDVouchersRedeemerMock",
  "sourceName": "contracts/mocks/token/ERC1155/QUIDDVouchersRedeemerMock.sol",
  "abi": [
    {
      "inputs": [
        {
          "internalType": "contract IERC1155InventoryBurnable",
          "name": "vouchersContract",
          "type": "address"
        },
        {
          "internalType": "contract IWrappedERC20",
          "name": "tokenContract",
          "type": "address"
        },
        {
          "internalType": "address",
          "name": "tokenHolder",
          "type": "address"
        }
      ],
      "stateMutability": "nonpayable",
      "type": "constructor"
    },
    {
      "anonymous": false,
      "inputs": [
        {
          "indexed": true,
          "internalType": "address",
          "name": "previousOwner",
          "type": "address"
        },
        {
          "indexed": true,
          "internalType": "address",
          "name": "newOwner",
          "type": "address"
        }
      ],
      "name": "OwnershipTransferred",
      "type": "event"
    },
    {
      "anonymous": false,
      "inputs": [
        {
          "indexed": false,
          "internalType": "address",
          "name": "account",
          "type": "address"
        }
      ],
      "name": "Paused",
      "type": "event"
    },
    {
      "anonymous": false,
      "inputs": [
        {
          "indexed": false,
          "internalType": "address",
          "name": "account",
          "type": "address"
        }
      ],
      "name": "Unpaused",
      "type": "event"
    },
    {
      "inputs": [
        {
          "internalType": "address",
          "name": "",
          "type": "address"
        },
        {
          "internalType": "address",
          "name": "from",
          "type": "address"
        },
        {
          "internalType": "uint256[]",
          "name": "ids",
          "type": "uint256[]"
        },
        {
          "internalType": "uint256[]",
          "name": "values",
          "type": "uint256[]"
        },
        {
          "internalType": "bytes",
          "name": "",
          "type": "bytes"
        }
      ],
      "name": "onERC1155BatchReceived",
      "outputs": [
        {
          "internalType": "bytes4",
          "name": "",
          "type": "bytes4"
        }
      ],
      "stateMutability": "nonpayable",
      "type": "function"
    },
    {
      "inputs": [
        {
          "internalType": "address",
          "name": "",
          "type": "address"
        },
        {
          "internalType": "address",
          "name": "from",
          "type": "address"
        },
        {
          "internalType": "uint256",
          "name": "id",
          "type": "uint256"
        },
        {
          "internalType": "uint256",
          "name": "value",
          "type": "uint256"
        },
        {
          "internalType": "bytes",
          "name": "",
          "type": "bytes"
        }
      ],
      "name": "onERC1155Received",
      "outputs": [
        {
          "internalType": "bytes4",
          "name": "",
          "type": "bytes4"
        }
      ],
      "stateMutability": "nonpayable",
      "type": "function"
    },
    {
      "inputs": [],
      "name": "owner",
      "outputs": [
        {
          "internalType": "address",
          "name": "",
          "type": "address"
        }
      ],
      "stateMutability": "view",
      "type": "function"
    },
    {
      "inputs": [],
      "name": "pause",
      "outputs": [],
      "stateMutability": "nonpayable",
      "type": "function"
    },
    {
      "inputs": [],
      "name": "paused",
      "outputs": [
        {
          "internalType": "bool",
          "name": "",
          "type": "bool"
        }
      ],
      "stateMutability": "view",
      "type": "function"
    },
    {
      "inputs": [
        {
          "internalType": "address",
          "name": "tokenHolder_",
          "type": "address"
        }
      ],
      "name": "setTokenHolder",
      "outputs": [],
      "stateMutability": "nonpayable",
      "type": "function"
    },
    {
      "inputs": [
        {
          "internalType": "bytes4",
          "name": "interfaceId",
          "type": "bytes4"
        }
      ],
      "name": "supportsInterface",
      "outputs": [
        {
          "internalType": "bool",
          "name": "",
          "type": "bool"
        }
      ],
      "stateMutability": "view",
      "type": "function"
    },
    {
      "inputs": [],
      "name": "tokenContract",
      "outputs": [
        {
          "internalType": "contract IWrappedERC20",
          "name": "",
          "type": "address"
        }
      ],
      "stateMutability": "view",
      "type": "function"
    },
    {
      "inputs": [],
      "name": "tokenHolder",
      "outputs": [
        {
          "internalType": "address",
          "name": "",
          "type": "address"
        }
      ],
      "stateMutability": "view",
      "type": "function"
    },
    {
      "inputs": [
        {
          "internalType": "address",
          "name": "newOwner",
          "type": "address"
        }
      ],
      "name": "transferOwnership",
      "outputs": [],
      "stateMutability": "nonpayable",
      "type": "function"
    },
    {
      "inputs": [],
      "name": "unpause",
      "outputs": [],
      "stateMutability": "nonpayable",
      "type": "function"
    },
    {
      "inputs": [
        {
          "internalType": "uint256",
          "name": "tokenId",
          "type": "uint256"
        }
      ],
      "name": "voucherValue",
      "outputs": [
        {
          "internalType": "uint256",
          "name": "",
          "type": "uint256"
        }
      ],
      "stateMutability": "pure",
      "type": "function"
    },
    {
      "inputs": [],
      "name": "vouchersContract",
      "outputs": [
        {
          "internalType": "contract IERC1155InventoryBurnable",
          "name": "",
          "type": "address"
        }
      ],
      "stateMutability": "view",
      "type": "function"
    }
  ],
  "bytecode": "0x60c060405234801561001057600080fd5b506040516110ff3803806110ff8339818101604052606081101561003357600080fd5b5080516020820151604092830151600080546001600160a01b03191633908117825594519394929391928592859285928592859285929091819083907f8be0079c531659141344cd1fd0a4f28419497f9722a3daafe3b4186f6b6457e0908290a35060008054911515600160a01b0260ff60a01b199092169190911781556001600160601b0319606085811b821660805284901b1660a052600180546001600160a01b039384166001600160a01b03199091161790559281169850169550610fce9450610131935091505039806104f2528061072952806108d25250806104ce528061055b52806105cf528061079752806108505250610fce6000f3fe608060405234801561001057600080fd5b50600436106100df5760003560e01c80635c975abb1161008c578063bc197c8111610066578063bc197c81146101bc578063f23a6e611461031e578063f29d2f28146103b3578063f2fde38b146103d9576100df565b80635c975abb146101a45780638456cb59146101ac5780638da5cb5b146101b4576100df565b8063420a83e7116100bd578063420a83e714610170578063474f28911461019457806355a373d61461019c576100df565b806301ffc9a7146100e457806303e15979146101375780633f4ba83a14610166575b600080fd5b610123600480360360208110156100fa57600080fd5b50357fffffffff00000000000000000000000000000000000000000000000000000000166103ff565b604080519115158252519081900360200190f35b6101546004803603602081101561014d57600080fd5b5035610498565b60408051918252519081900360200190f35b61016e6104a3565b005b6101786104bd565b604080516001600160a01b039092168252519081900360200190f35b6101786104cc565b6101786104f0565b610123610514565b61016e610524565b610178610537565b6102e9600480360360a08110156101d257600080fd5b6001600160a01b03823581169260208101359091169181019060608101604082013564010000000081111561020657600080fd5b82018360208201111561021857600080fd5b8035906020019184602083028401116401000000008311171561023a57600080fd5b91939092909160208101903564010000000081111561025857600080fd5b82018360208201111561026a57600080fd5b8035906020019184602083028401116401000000008311171561028c57600080fd5b9193909290916020810190356401000000008111156102aa57600080fd5b8201836020820111156102bc57600080fd5b803590602001918460018302840111640100000000831117156102de57600080fd5b509092509050610546565b604080517fffffffff000000000000000000000000000000000000000000000000000000009092168252519081900360200190f35b6102e9600480360360a081101561033457600080fd5b6001600160a01b03823581169260208101359091169160408201359160608101359181019060a08101608082013564010000000081111561037457600080fd5b82018360208201111561038657600080fd5b803590602001918460018302840111640100000000831117156103a857600080fd5b509092509050610782565b61016e600480360360208110156103c957600080fd5b50356001600160a01b0316610929565b61016e600480360360208110156103ef57600080fd5b50356001600160a01b031661096e565b60007fffffffff0000000000000000000000000000000000000000000000000000000082167f01ffc9a700000000000000000000000000000000000000000000000000000000148061049257507fffffffff0000000000000000000000000000000000000000000000000000000082167f4e2312e000000000000000000000000000000000000000000000000000000000145b92915050565b6000610492826109df565b6104b36104ae6109e2565b6109e6565b6104bb610aad565b565b6001546001600160a01b031681565b7f000000000000000000000000000000000000000000000000000000000000000081565b7f000000000000000000000000000000000000000000000000000000000000000081565b600054600160a01b900460ff1681565b61052f6104ae6109e2565b6104bb610b23565b6000546001600160a01b031690565b6000610550610b82565b336001600160a01b037f000000000000000000000000000000000000000000000000000000000000000016146105cd576040805162461bcd60e51b815260206004820152601660248201527f52656465656d65723a2077726f6e672073656e64657200000000000000000000604482015290519081900360640190fd5b7f00000000000000000000000000000000000000000000000000000000000000006001600160a01b0316638053493430898989896040518663ffffffff1660e01b815260040180866001600160a01b0316815260200180602001806020018381038352878782818152602001925060200280828437600083820152601f01601f19169091018481038352858152602090810191508690860280828437600081840152601f19601f820116905080830192505050975050505050505050600060405180830381600087803b1580156106a357600080fd5b505af11580156106b7573d6000803e3d6000fd5b505050506000805b8088146107175760008989838181106106d457fe5b90506020020135905061070c6107058989858181106106ef57fe5b905060200201356106ff846109df565b90610be1565b8490610c41565b9250506001016106bf565b50600154610753906001600160a01b037f0000000000000000000000000000000000000000000000000000000000000000811691168b84610c9b565b507fbc197c81000000000000000000000000000000000000000000000000000000009998505050505050505050565b600061078c610b82565b336001600160a01b037f00000000000000000000000000000000000000000000000000000000000000001614610809576040805162461bcd60e51b815260206004820152601660248201527f52656465656d65723a2077726f6e672073656e64657200000000000000000000604482015290519081900360640190fd5b604080517f124d91e5000000000000000000000000000000000000000000000000000000008152306004820152602481018790526044810186905290516001600160a01b037f0000000000000000000000000000000000000000000000000000000000000000169163124d91e591606480830192600092919082900301818387803b15801561089757600080fd5b505af11580156108ab573d6000803e3d6000fd5b5050505060006108be856106ff886109df565b6001549091506108fc906001600160a01b037f0000000000000000000000000000000000000000000000000000000000000000811691168984610c9b565b507ff23a6e6100000000000000000000000000000000000000000000000000000000979650505050505050565b6109346104ae6109e2565b600180547fffffffffffffffffffffffff0000000000000000000000000000000000000000166001600160a01b0392909216919091179055565b6109796104ae6109e2565b600080547fffffffffffffffffffffffff0000000000000000000000000000000000000000166001600160a01b0383811691821780845560405192939116917f8be0079c531659141344cd1fd0a4f28419497f9722a3daafe3b4186f6b6457e09190a350565b90565b3390565b306001600160a01b0316638da5cb5b6040518163ffffffff1660e01b815260040160206040518083038186803b158015610a1f57600080fd5b505afa158015610a33573d6000803e3d6000fd5b505050506040513d6020811015610a4957600080fd5b50516001600160a01b03828116911614610aaa576040805162461bcd60e51b815260206004820152601660248201527f4f776e61626c653a206e6f7420746865206f776e657200000000000000000000604482015290519081900360640190fd5b50565b610ab5610d29565b600080547fffffffffffffffffffffff00ffffffffffffffffffffffffffffffffffffffff1690557f5db9ee0a495bf2e6ff9c91a7834c1ba4fdd244a5e8aa4e537bd38aeae4b073aa610b066109e2565b604080516001600160a01b039092168252519081900360200190a1565b610b2b610b82565b600080547fffffffffffffffffffffff00ffffffffffffffffffffffffffffffffffffffff16600160a01b1790557f62e78cea01bee320cd4e420270b5ea74000d11b0c9f74754ebdbfc544b05a258610b066109e2565b600054600160a01b900460ff16156104bb576040805162461bcd60e51b815260206004820152601060248201527f5061757361626c653a2070617573656400000000000000000000000000000000604482015290519081900360640190fd5b600082610bf057506000610492565b82820282848281610bfd57fe5b0414610c3a5760405162461bcd60e51b8152600401808060200182810382526021815260200180610f786021913960400191505060405180910390fd5b9392505050565b600082820183811015610c3a576040805162461bcd60e51b815260206004820152601b60248201527f536166654d6174683a206164646974696f6e206f766572666c6f770000000000604482015290519081900360640190fd5b604080516001600160a01b0380861660248301528416604482015260648082018490528251808303909101815260849091019091526020810180517bffffffffffffffffffffffffffffffffffffffffffffffffffffffff167f23b872dd00000000000000000000000000000000000000000000000000000000179052610d23908590610d87565b50505050565b600054600160a01b900460ff166104bb576040805162461bcd60e51b815260206004820152601460248201527f5061757361626c653a206e6f7420706175736564000000000000000000000000604482015290519081900360640190fd5b81610d9a6001600160a01b038216610f71565b610deb576040805162461bcd60e51b815260206004820152601a60248201527f4552433230577261707065723a206e6f6e2d636f6e7472616374000000000000604482015290519081900360640190fd5b600080826001600160a01b0316846040518082805190602001908083835b60208310610e285780518252601f199092019160209182019101610e09565b6001836020036101000a0380198251168184511680821785525050505050509050019150506000604051808303816000865af19150503d8060008114610e8a576040519150601f19603f3d011682016040523d82523d6000602084013e610e8f565b606091505b50915091508115610f0e57805115610f0957808060200190516020811015610eb657600080fd5b5051610f09576040805162461bcd60e51b815260206004820152601e60248201527f4552433230577261707065723a206f7065726174696f6e206661696c65640000604482015290519081900360640190fd5b610f6a565b8051610f61576040805162461bcd60e51b815260206004820152601e60248201527f4552433230577261707065723a206f7065726174696f6e206661696c65640000604482015290519081900360640190fd5b80518082602001fd5b5050505050565b3b15159056fe536166654d6174683a206d756c7469706c69636174696f6e206f766572666c6f77a2646970667358221220110e2dbec8b58747a26d6e3d4329c8cab110f90c3bf34bf7a4d795525b14ce3e64736f6c63430007060033",
  "linkReferences": {},
  "deployedLinkReferences": {}
}